{
  "address": "0xe7f1725E7734CE288F8367e1Bb143E90bb3F0512",
  "abi": [
    {
      "inputs": [
        {
          "internalType": "address",
          "name": "_coordinator",
          "type": "address"
        },
        {
          "internalType": "uint256",
          "name": "_minimumFee",
          "type": "uint256"
        },
        {
          "internalType": "uint64",
          "name": "subscriptionId",
          "type": "uint64"
        },
        {
          "internalType": "bytes32",
          "name": "_keyHash",
          "type": "bytes32"
        },
        {
          "internalType": "uint32",
          "name": "_callbackGasLimit",
          "type": "uint32"
        },
        {
          "internalType": "uint16",
          "name": "_requestConfirmations",
          "type": "uint16"
        },
        {
          "internalType": "uint32",
          "name": "_numWords",
          "type": "uint32"
        },
        {
          "internalType": "uint256",
          "name": "updatei_interval",
          "type": "uint256"
        }
      ],
      "stateMutability": "nonpayable",
      "type": "constructor"
    },
    {
      "inputs": [],
      "name": "Lottery__balanceNotSent",
      "type": "error"
    },
    {
      "inputs": [],
      "name": "Lottery__ethNotEnough",
      "type": "error"
    },
    {
      "inputs": [],
      "name": "Lottery__failedWinnerTransfer",
      "type": "error"
    },
    {
      "inputs": [],
      "name": "Lottery__raffleClosed",
      "type": "error"
    },
    {
      "inputs": [],
      "name": "Lottery__requestNotFound",
      "type": "error"
    },
    {
      "inputs": [],
      "name": "Lottery__upkeepNotNeeded",
      "type": "error"
    },
    {
      "inputs": [
        {
          "internalType": "address",
          "name": "have",
          "type": "address"
        },
        {
          "internalType": "address",
          "name": "want",
          "type": "address"
        }
      ],
      "name": "OnlyCoordinatorCanFulfill",
      "type": "error"
    },
    {
      "anonymous": false,
      "inputs": [
        {
          "indexed": true,
          "internalType": "address",
          "name": "from",
          "type": "address"
        },
        {
          "indexed": true,
          "internalType": "address",
          "name": "to",
          "type": "address"
        }
      ],
      "name": "OwnershipTransferRequested",
      "type": "event"
    },
    {
      "anonymous": false,
      "inputs": [
        {
          "indexed": true,
          "internalType": "address",
          "name": "from",
          "type": "address"
        },
        {
          "indexed": true,
          "internalType": "address",
          "name": "to",
          "type": "address"
        }
      ],
      "name": "OwnershipTransferred",
      "type": "event"
    },
    {
      "anonymous": false,
      "inputs": [
        {
          "indexed": false,
          "internalType": "uint256",
          "name": "requestId",
          "type": "uint256"
        },
        {
          "indexed": false,
          "internalType": "uint256[]",
          "name": "randomWords",
          "type": "uint256[]"
        }
      ],
      "name": "RequestFulfiled",
      "type": "event"
    },
    {
      "anonymous": false,
      "inputs": [
        {
          "indexed": false,
          "internalType": "uint256",
          "name": "requestId",
          "type": "uint256"
        },
        {
          "indexed": false,
          "internalType": "uint32",
          "name": "numWords",
          "type": "uint32"
        }
      ],
      "name": "RequestSent",
      "type": "event"
    },
    {
      "anonymous": false,
      "inputs": [
        {
          "indexed": false,
          "internalType": "address",
          "name": "",
          "type": "address"
        }
      ],
      "name": "winnerPicked",
      "type": "event"
    },
    {
      "inputs": [],
      "name": "acceptOwnership",
      "outputs": [],
      "stateMutability": "nonpayable",
      "type": "function"
    },
    {
      "inputs": [
        {
          "internalType": "address",
          "name": "_address",
          "type": "address"
        }
      ],
      "name": "addressFund",
      "outputs": [
        {
          "internalType": "uint256",
          "name": "",
          "type": "uint256"
        }
      ],
      "stateMutability": "view",
      "type": "function"
    },
    {
      "inputs": [
        {
          "internalType": "bytes",
          "name": "",
          "type": "bytes"
        }
      ],
      "name": "checkUpkeep",
      "outputs": [
        {
          "internalType": "bool",
          "name": "upkeepNeeded",
          "type": "bool"
        },
        {
          "internalType": "bytes",
          "name": "",
          "type": "bytes"
        }
      ],
      "stateMutability": "nonpayable",
      "type": "function"
    },
    {
      "inputs": [],
      "name": "enterLottery",
      "outputs": [],
      "stateMutability": "payable",
      "type": "function"
    },
    {
      "inputs": [
        {
          "internalType": "uint256",
          "name": "_index",
          "type": "uint256"
        }
      ],
      "name": "getAddressOfIndex",
      "outputs": [
        {
          "internalType": "address",
          "name": "",
          "type": "address"
        }
      ],
      "stateMutability": "view",
      "type": "function"
    },
    {
      "inputs": [],
      "name": "getInterval",
      "outputs": [
        {
          "internalType": "uint256",
          "name": "",
          "type": "uint256"
        }
      ],
      "stateMutability": "view",
      "type": "function"
    },
    {
      "inputs": [],
      "name": "getLastTimestamp",
      "outputs": [
        {
          "internalType": "uint256",
          "name": "",
          "type": "uint256"
        }
      ],
      "stateMutability": "view",
      "type": "function"
    },
    {
      "inputs": [],
      "name": "getRaffleState",
      "outputs": [
        {
          "internalType": "enum Lottery.Status",
          "name": "",
          "type": "uint8"
        }
      ],
      "stateMutability": "view",
      "type": "function"
    },
    {
      "inputs": [],
      "name": "getRecentWinner",
      "outputs": [
        {
          "internalType": "address",
          "name": "",
          "type": "address"
        }
      ],
      "stateMutability": "view",
      "type": "function"
    },
    {
      "inputs": [],
      "name": "i_interval",
      "outputs": [
        {
          "internalType": "uint256",
          "name": "",
          "type": "uint256"
        }
      ],
      "stateMutability": "view",
      "type": "function"
    },
    {
      "inputs": [],
      "name": "lastTimestamp",
      "outputs": [
        {
          "internalType": "uint256",
          "name": "",
          "type": "uint256"
        }
      ],
      "stateMutability": "view",
      "type": "function"
    },
    {
      "inputs": [],
      "name": "numberOfParticipants",
      "outputs": [
        {
          "internalType": "uint256",
          "name": "",
          "type": "uint256"
        }
      ],
      "stateMutability": "view",
      "type": "function"
    },
    {
      "inputs": [],
      "name": "owner",
      "outputs": [
        {
          "internalType": "address",
          "name": "",
          "type": "address"
        }
      ],
      "stateMutability": "view",
      "type": "function"
    },
    {
      "inputs": [
        {
          "internalType": "bytes",
          "name": "",
          "type": "bytes"
        }
      ],
      "name": "performUpkeep",
      "outputs": [],
      "stateMutability": "nonpayable",
      "type": "function"
    },
    {
      "inputs": [
        {
          "internalType": "uint256",
          "name": "requestId",
          "type": "uint256"
        },
        {
          "internalType": "uint256[]",
          "name": "randomWords",
          "type": "uint256[]"
        }
      ],
      "name": "rawFulfillRandomWords",
      "outputs": [],
      "stateMutability": "nonpayable",
      "type": "function"
    },
    {
      "inputs": [],
      "name": "s_owner",
      "outputs": [
        {
          "internalType": "address",
          "name": "",
          "type": "address"
        }
      ],
      "stateMutability": "view",
      "type": "function"
    },
    {
      "inputs": [
        {
          "internalType": "address",
          "name": "to",
          "type": "address"
        }
      ],
      "name": "transferOwnership",
      "outputs": [],
      "stateMutability": "nonpayable",
      "type": "function"
    }
  ],
  "transactionHash": "0x2e3398b5a3152586a8c88b941714dd0d5812bb84444ecc662acc5d268fa1b9fd",
  "args": [
    "0x5FbDB2315678afecb367f032d93F642f64180aa3",
    50,
    1,
    "0x474e34a077df58807dbe9c96d3c009b23b3c6d0cce433e59bbf5b34f823bc56c",
    1000,
    3,
    2,
    30
  ],
  "numDeployments": 1,
  "solcInputHash": "e36296baa76fffbc737a241a6d60495d",
  "bytecode": "0x60e06040523480156200001157600080fd5b50604051620022fd380380620022fd833981810160405281019062000037919062000577565b338060008a8073ffffffffffffffffffffffffffffffffffffffff1660808173ffffffffffffffffffffffffffffffffffffffff168152505050600073ffffffffffffffffffffffffffffffffffffffff168273ffffffffffffffffffffffffffffffffffffffff1603620000e3576040517f08c379a0000000000000000000000000000000000000000000000000000000008152600401620000da90620006a1565b60405180910390fd5b816000806101000a81548173ffffffffffffffffffffffffffffffffffffffff021916908373ffffffffffffffffffffffffffffffffffffffff160217905550600073ffffffffffffffffffffffffffffffffffffffff168173ffffffffffffffffffffffffffffffffffffffff16146200016a576200016981620002a360201b60201c565b5b50505033600960006101000a81548173ffffffffffffffffffffffffffffffffffffffff021916908373ffffffffffffffffffffffffffffffffffffffff1602179055508060c08181525050426008819055508660a0818152505085600560146101000a81548167ffffffffffffffff021916908367ffffffffffffffff1602179055508460068190555083600760006101000a81548163ffffffff021916908363ffffffff16021790555082600760046101000a81548161ffff021916908361ffff16021790555081600760066101000a81548163ffffffff021916908363ffffffff16021790555087600260006101000a81548173ffffffffffffffffffffffffffffffffffffffff021916908373ffffffffffffffffffffffffffffffffffffffff160217905550505050505050505062000735565b3373ffffffffffffffffffffffffffffffffffffffff168173ffffffffffffffffffffffffffffffffffffffff160362000314576040517f08c379a00000000000000000000000000000000000000000000000000000000081526004016200030b9062000713565b60405180910390fd5b80600160006101000a81548173ffffffffffffffffffffffffffffffffffffffff021916908373ffffffffffffffffffffffffffffffffffffffff1602179055508073ffffffffffffffffffffffffffffffffffffffff1660008054906101000a900473ffffffffffffffffffffffffffffffffffffffff1673ffffffffffffffffffffffffffffffffffffffff167fed8889f560326eb138920d842192f0eb3dd22b4f139c87a2c57538e05bae127860405160405180910390a350565b600080fd5b600073ffffffffffffffffffffffffffffffffffffffff82169050919050565b60006200040482620003d7565b9050919050565b6200041681620003f7565b81146200042257600080fd5b50565b60008151905062000436816200040b565b92915050565b6000819050919050565b62000451816200043c565b81146200045d57600080fd5b50565b600081519050620004718162000446565b92915050565b600067ffffffffffffffff82169050919050565b620004968162000477565b8114620004a257600080fd5b50565b600081519050620004b6816200048b565b92915050565b6000819050919050565b620004d181620004bc565b8114620004dd57600080fd5b50565b600081519050620004f181620004c6565b92915050565b600063ffffffff82169050919050565b6200051281620004f7565b81146200051e57600080fd5b50565b600081519050620005328162000507565b92915050565b600061ffff82169050919050565b620005518162000538565b81146200055d57600080fd5b50565b600081519050620005718162000546565b92915050565b600080600080600080600080610100898b0312156200059b576200059a620003d2565b5b6000620005ab8b828c0162000425565b9850506020620005be8b828c0162000460565b9750506040620005d18b828c01620004a5565b9650506060620005e48b828c01620004e0565b9550506080620005f78b828c0162000521565b94505060a06200060a8b828c0162000560565b93505060c06200061d8b828c0162000521565b92505060e0620006308b828c0162000460565b9150509295985092959890939650565b600082825260208201905092915050565b7f43616e6e6f7420736574206f776e657220746f207a65726f0000000000000000600082015250565b60006200068960188362000640565b9150620006968262000651565b602082019050919050565b60006020820190508181036000830152620006bc816200067a565b9050919050565b7f43616e6e6f74207472616e7366657220746f2073656c66000000000000000000600082015250565b6000620006fb60178362000640565b91506200070882620006c3565b602082019050919050565b600060208201905081810360008301526200072e81620006ec565b9050919050565b60805160a05160c051611b7c6200078160003960008181610584015281816106e60152818161071401526109d201526000610a650152600081816103f9015261044d0152611b7c6000f3fe6080604052600436106100fe5760003560e01c80637417040e1161009557806391ad27b41161006457806391ad27b414610314578063c1af57851461033f578063e152517f14610349578063e397824014610386578063f2fde38b146103b1576100fe565b80637417040e1461026a57806379ba50971461029557806381f8d925146102ac5780638da5cb5b146102e9576100fe565b80634585e33b116100d15780634585e33b146101ad578063473f1ddc146101d65780636919207d146102015780636e04ff0d1461022c576100fe565b8063115cbaf51461010357806319d8ac611461012e5780631fe543e3146101595780633789977014610182575b600080fd5b34801561010f57600080fd5b506101186103da565b60405161012591906111ed565b60405180910390f35b34801561013a57600080fd5b506101436103f1565b6040516101509190611221565b60405180910390f35b34801561016557600080fd5b50610180600480360381019061017b91906113d5565b6103f7565b005b34801561018e57600080fd5b506101976104b7565b6040516101a49190611221565b60405180910390f35b3480156101b957600080fd5b506101d460048036038101906101cf919061148c565b6104c1565b005b3480156101e257600080fd5b506101eb6106ba565b6040516101f8919061151a565b60405180910390f35b34801561020d57600080fd5b506102166106e4565b6040516102239190611221565b60405180910390f35b34801561023857600080fd5b50610253600480360381019061024e91906115ea565b610708565b6040516102619291906116cd565b60405180910390f35b34801561027657600080fd5b5061027f6107bb565b60405161028c9190611221565b60405180910390f35b3480156102a157600080fd5b506102aa6107c8565b005b3480156102b857600080fd5b506102d360048036038101906102ce91906116fd565b61095d565b6040516102e0919061151a565b60405180910390f35b3480156102f557600080fd5b506102fe6109a5565b60405161030b919061151a565b60405180910390f35b34801561032057600080fd5b506103296109ce565b6040516103369190611221565b60405180910390f35b6103476109f6565b005b34801561035557600080fd5b50610370600480360381019061036b9190611756565b610c09565b60405161037d9190611221565b60405180910390f35b34801561039257600080fd5b5061039b610c52565b6040516103a8919061151a565b60405180910390f35b3480156103bd57600080fd5b506103d860048036038101906103d39190611756565b610c78565b005b6000600960149054906101000a900460ff16905090565b60085481565b7f000000000000000000000000000000000000000000000000000000000000000073ffffffffffffffffffffffffffffffffffffffff163373ffffffffffffffffffffffffffffffffffffffff16146104a957337f00000000000000000000000000000000000000000000000000000000000000006040517f1cf993f40000000000000000000000000000000000000000000000000000000081526004016104a0929190611783565b60405180910390fd5b6104b38282610c8c565b5050565b6000600854905090565b60006104db60405180602001604052806000815250610708565b50905080610515576040517f439ffba500000000000000000000000000000000000000000000000000000000815260040160405180910390fd5b60018081111561052857610527611176565b5b600960149054906101000a900460ff16600181111561054a57610549611176565b5b14610581576040517fff98124b00000000000000000000000000000000000000000000000000000000815260040160405180910390fd5b427f00000000000000000000000000000000000000000000000000000000000000006008546105b091906117db565b11156105be57426008819055505b6000600260009054906101000a900473ffffffffffffffffffffffffffffffffffffffff1673ffffffffffffffffffffffffffffffffffffffff16635d3b1d30600654600560149054906101000a900467ffffffffffffffff16600760049054906101000a900461ffff16600760009054906101000a900463ffffffff16600760069054906101000a900463ffffffff166040518663ffffffff1660e01b815260040161066f959493929190611887565b6020604051808303816000875af115801561068e573d6000803e3d6000fd5b505050506040513d601f19601f820116820180604052508101906106b291906118ef565b905050505050565b6000600560009054906101000a900473ffffffffffffffffffffffffffffffffffffffff16905090565b7f000000000000000000000000000000000000000000000000000000000000000081565b600060606000915060007f000000000000000000000000000000000000000000000000000000000000000060085461074091906117db565b42119050600080600380549050119050600080471190508280156107615750815b801561076a5750805b9450841561079e576001600960146101000a81548160ff0219169083600181111561079857610797611176565b5b02179055505b846040518060200160405280600081525094509450505050915091565b6000600380549050905090565b600160009054906101000a900473ffffffffffffffffffffffffffffffffffffffff1673ffffffffffffffffffffffffffffffffffffffff163373ffffffffffffffffffffffffffffffffffffffff1614610858576040517f08c379a000000000000000000000000000000000000000000000000000000000815260040161084f90611979565b60405180910390fd5b60008060009054906101000a900473ffffffffffffffffffffffffffffffffffffffff169050336000806101000a81548173ffffffffffffffffffffffffffffffffffffffff021916908373ffffffffffffffffffffffffffffffffffffffff1602179055506000600160006101000a81548173ffffffffffffffffffffffffffffffffffffffff021916908373ffffffffffffffffffffffffffffffffffffffff1602179055503373ffffffffffffffffffffffffffffffffffffffff168173ffffffffffffffffffffffffffffffffffffffff167f8be0079c531659141344cd1fd0a4f28419497f9722a3daafe3b4186f6b6457e060405160405180910390a350565b60006003828154811061097357610972611999565b5b9060005260206000200160009054906101000a900473ffffffffffffffffffffffffffffffffffffffff169050919050565b60008060009054906101000a900473ffffffffffffffffffffffffffffffffffffffff16905090565b60007f0000000000000000000000000000000000000000000000000000000000000000905090565b60006001811115610a0a57610a09611176565b5b600960149054906101000a900460ff166001811115610a2c57610a2b611176565b5b14610a63576040517fff98124b00000000000000000000000000000000000000000000000000000000815260040160405180910390fd5b7f0000000000000000000000000000000000000000000000000000000000000000341015610abd576040517f8687705700000000000000000000000000000000000000000000000000000000815260040160405180910390fd5b6000600460003373ffffffffffffffffffffffffffffffffffffffff1673ffffffffffffffffffffffffffffffffffffffff1681526020019081526020016000205414610b5f5734600460003373ffffffffffffffffffffffffffffffffffffffff1673ffffffffffffffffffffffffffffffffffffffff1681526020019081526020016000206000828254610b5391906117db565b92505081905550610c07565b34600460003373ffffffffffffffffffffffffffffffffffffffff1673ffffffffffffffffffffffffffffffffffffffff168152602001908152602001600020819055506003339080600181540180825580915050600190039060005260206000200160009091909190916101000a81548173ffffffffffffffffffffffffffffffffffffffff021916908373ffffffffffffffffffffffffffffffffffffffff1602179055505b565b6000600460008373ffffffffffffffffffffffffffffffffffffffff1673ffffffffffffffffffffffffffffffffffffffff168152602001908152602001600020549050919050565b600960009054906101000a900473ffffffffffffffffffffffffffffffffffffffff1681565b610c80610f13565b610c8981610fa3565b50565b600081600081518110610ca257610ca1611999565b5b60200260200101519050600060038054905082610cbf91906119f7565b90506000600960146101000a81548160ff02191690836001811115610ce757610ce6611176565b5b02179055504260088190555060038181548110610d0757610d06611999565b5b9060005260206000200160009054906101000a900473ffffffffffffffffffffffffffffffffffffffff16600560006101000a81548173ffffffffffffffffffffffffffffffffffffffff021916908373ffffffffffffffffffffffffffffffffffffffff160217905550600067ffffffffffffffff811115610d8d57610d8c611292565b5b604051908082528060200260200182016040528015610dbb5781602001602082028036833780820191505090505b5060039080519060200190610dd19291906110cf565b50600060038281548110610de857610de7611999565b5b9060005260206000200160009054906101000a900473ffffffffffffffffffffffffffffffffffffffff1673ffffffffffffffffffffffffffffffffffffffff1647604051610e3690611a59565b60006040518083038185875af1925050503d8060008114610e73576040519150601f19603f3d011682016040523d82523d6000602084013e610e78565b606091505b5050905080610eb3576040517f3b07623d00000000000000000000000000000000000000000000000000000000815260040160405180910390fd5b7f794919b0f484b8e90b1b817ac7f880f846fbd8a9813dee2a378e820db094e3d1600560009054906101000a900473ffffffffffffffffffffffffffffffffffffffff16604051610f04919061151a565b60405180910390a15050505050565b60008054906101000a900473ffffffffffffffffffffffffffffffffffffffff1673ffffffffffffffffffffffffffffffffffffffff163373ffffffffffffffffffffffffffffffffffffffff1614610fa1576040517f08c379a0000000000000000000000000000000000000000000000000000000008152600401610f9890611aba565b60405180910390fd5b565b3373ffffffffffffffffffffffffffffffffffffffff168173ffffffffffffffffffffffffffffffffffffffff1603611011576040517f08c379a000000000000000000000000000000000000000000000000000000000815260040161100890611b26565b60405180910390fd5b80600160006101000a81548173ffffffffffffffffffffffffffffffffffffffff021916908373ffffffffffffffffffffffffffffffffffffffff1602179055508073ffffffffffffffffffffffffffffffffffffffff1660008054906101000a900473ffffffffffffffffffffffffffffffffffffffff1673ffffffffffffffffffffffffffffffffffffffff167fed8889f560326eb138920d842192f0eb3dd22b4f139c87a2c57538e05bae127860405160405180910390a350565b828054828255906000526020600020908101928215611148579160200282015b828111156111475782518260006101000a81548173ffffffffffffffffffffffffffffffffffffffff021916908373ffffffffffffffffffffffffffffffffffffffff160217905550916020019190600101906110ef565b5b5090506111559190611159565b5090565b5b8082111561117257600081600090555060010161115a565b5090565b7f4e487b7100000000000000000000000000000000000000000000000000000000600052602160045260246000fd5b600281106111b6576111b5611176565b5b50565b60008190506111c7826111a5565b919050565b60006111d7826111b9565b9050919050565b6111e7816111cc565b82525050565b600060208201905061120260008301846111de565b92915050565b6000819050919050565b61121b81611208565b82525050565b60006020820190506112366000830184611212565b92915050565b6000604051905090565b600080fd5b600080fd5b61125981611208565b811461126457600080fd5b50565b60008135905061127681611250565b92915050565b600080fd5b6000601f19601f8301169050919050565b7f4e487b7100000000000000000000000000000000000000000000000000000000600052604160045260246000fd5b6112ca82611281565b810181811067ffffffffffffffff821117156112e9576112e8611292565b5b80604052505050565b60006112fc61123c565b905061130882826112c1565b919050565b600067ffffffffffffffff82111561132857611327611292565b5b602082029050602081019050919050565b600080fd5b600061135161134c8461130d565b6112f2565b9050808382526020820190506020840283018581111561137457611373611339565b5b835b8181101561139d57806113898882611267565b845260208401935050602081019050611376565b5050509392505050565b600082601f8301126113bc576113bb61127c565b5b81356113cc84826020860161133e565b91505092915050565b600080604083850312156113ec576113eb611246565b5b60006113fa85828601611267565b925050602083013567ffffffffffffffff81111561141b5761141a61124b565b5b611427858286016113a7565b9150509250929050565b600080fd5b60008083601f84011261144c5761144b61127c565b5b8235905067ffffffffffffffff81111561146957611468611431565b5b60208301915083600182028301111561148557611484611339565b5b9250929050565b600080602083850312156114a3576114a2611246565b5b600083013567ffffffffffffffff8111156114c1576114c061124b565b5b6114cd85828601611436565b92509250509250929050565b600073ffffffffffffffffffffffffffffffffffffffff82169050919050565b6000611504826114d9565b9050919050565b611514816114f9565b82525050565b600060208201905061152f600083018461150b565b92915050565b600080fd5b600067ffffffffffffffff82111561155557611554611292565b5b61155e82611281565b9050602081019050919050565b82818337600083830152505050565b600061158d6115888461153a565b6112f2565b9050828152602081018484840111156115a9576115a8611535565b5b6115b484828561156b565b509392505050565b600082601f8301126115d1576115d061127c565b5b81356115e184826020860161157a565b91505092915050565b600060208284031215611600576115ff611246565b5b600082013567ffffffffffffffff81111561161e5761161d61124b565b5b61162a848285016115bc565b91505092915050565b60008115159050919050565b61164881611633565b82525050565b600081519050919050565b600082825260208201905092915050565b60005b8381101561168857808201518184015260208101905061166d565b60008484015250505050565b600061169f8261164e565b6116a98185611659565b93506116b981856020860161166a565b6116c281611281565b840191505092915050565b60006040820190506116e2600083018561163f565b81810360208301526116f48184611694565b90509392505050565b60006020828403121561171357611712611246565b5b600061172184828501611267565b91505092915050565b611733816114f9565b811461173e57600080fd5b50565b6000813590506117508161172a565b92915050565b60006020828403121561176c5761176b611246565b5b600061177a84828501611741565b91505092915050565b6000604082019050611798600083018561150b565b6117a5602083018461150b565b9392505050565b7f4e487b7100000000000000000000000000000000000000000000000000000000600052601160045260246000fd5b60006117e682611208565b91506117f183611208565b9250828201905080821115611809576118086117ac565b5b92915050565b6000819050919050565b6118228161180f565b82525050565b600067ffffffffffffffff82169050919050565b61184581611828565b82525050565b600061ffff82169050919050565b6118628161184b565b82525050565b600063ffffffff82169050919050565b61188181611868565b82525050565b600060a08201905061189c6000830188611819565b6118a9602083018761183c565b6118b66040830186611859565b6118c36060830185611878565b6118d06080830184611878565b9695505050505050565b6000815190506118e981611250565b92915050565b60006020828403121561190557611904611246565b5b6000611913848285016118da565b91505092915050565b600082825260208201905092915050565b7f4d7573742062652070726f706f736564206f776e657200000000000000000000600082015250565b600061196360168361191c565b915061196e8261192d565b602082019050919050565b6000602082019050818103600083015261199281611956565b9050919050565b7f4e487b7100000000000000000000000000000000000000000000000000000000600052603260045260246000fd5b7f4e487b7100000000000000000000000000000000000000000000000000000000600052601260045260246000fd5b6000611a0282611208565b9150611a0d83611208565b925082611a1d57611a1c6119c8565b5b828206905092915050565b600081905092915050565b50565b6000611a43600083611a28565b9150611a4e82611a33565b600082019050919050565b6000611a6482611a36565b9150819050919050565b7f4f6e6c792063616c6c61626c65206279206f776e657200000000000000000000600082015250565b6000611aa460168361191c565b9150611aaf82611a6e565b602082019050919050565b60006020820190508181036000830152611ad381611a97565b9050919050565b7f43616e6e6f74207472616e7366657220746f2073656c66000000000000000000600082015250565b6000611b1060178361191c565b9150611b1b82611ada565b602082019050919050565b60006020820190508181036000830152611b3f81611b03565b905091905056fea2646970667358221220754d5a4854ed2ef72544cc4d3ec06b15939010ea5300a6123d217a48d07d969f64736f6c63430008130033",
  "devdoc": {
    "author": "Ogar Segun",
    "details": "This implements ChaninlinkVRF and Chainlink automation",
    "kind": "dev",
    "methods": {},
    "title": "A simple lottery project",
    "version": 1
  },
  "userdoc": {
    "kind": "user",
    "methods": {
      "acceptOwnership()": {
        "notice": "Allows an ownership transfer to be completed by the recipient."
      },
      "owner()": {
        "notice": "Get the current owner"
      },
      "transferOwnership(address)": {
        "notice": "Allows an owner to begin transferring ownership to a new address, pending."
      }
    },
    "version": 1
  },
  "storageLayout": {
    "storage": [
      {
        "astId": 66,
        "contract": "contracts/Lottery.sol:Lottery",
        "label": "s_owner",
        "offset": 0,
        "slot": "0",
        "type": "t_address"
      },
      {
        "astId": 68,
        "contract": "contracts/Lottery.sol:Lottery",
        "label": "s_pendingOwner",
        "offset": 0,
        "slot": "1",
        "type": "t_address"
      },
      {
        "astId": 426,
        "contract": "contracts/Lottery.sol:Lottery",
        "label": "COORDINATOR",
        "offset": 0,
        "slot": "2",
        "type": "t_contract(VRFCoordinatorV2Interface)409"
      },
      {
        "astId": 442,
        "contract": "contracts/Lottery.sol:Lottery",
        "label": "s_participantArray",
        "offset": 0,
        "slot": "3",
        "type": "t_array(t_address_payable)dyn_storage"
      },
      {
        "astId": 448,
        "contract": "contracts/Lottery.sol:Lottery",
        "label": "s_mappingParticipant",
        "offset": 0,
        "slot": "4",
        "type": "t_mapping(t_address,t_uint256)"
      },
      {
        "astId": 450,
        "contract": "contracts/Lottery.sol:Lottery",
        "label": "s_recentWinner",
        "offset": 0,
        "slot": "5",
        "type": "t_address"
      },
      {
        "astId": 452,
        "contract": "contracts/Lottery.sol:Lottery",
        "label": "s_subscriptionId",
        "offset": 20,
        "slot": "5",
        "type": "t_uint64"
      },
      {
        "astId": 454,
        "contract": "contracts/Lottery.sol:Lottery",
        "label": "keyHash",
        "offset": 0,
        "slot": "6",
        "type": "t_bytes32"
      },
      {
        "astId": 456,
        "contract": "contracts/Lottery.sol:Lottery",
        "label": "callbackGasLimit",
        "offset": 0,
        "slot": "7",
        "type": "t_uint32"
      },
      {
        "astId": 458,
        "contract": "contracts/Lottery.sol:Lottery",
        "label": "requestConfirmations",
        "offset": 4,
        "slot": "7",
        "type": "t_uint16"
      },
      {
        "astId": 460,
        "contract": "contracts/Lottery.sol:Lottery",
        "label": "numWords",
        "offset": 6,
        "slot": "7",
        "type": "t_uint32"
      },
      {
        "astId": 462,
        "contract": "contracts/Lottery.sol:Lottery",
        "label": "lastTimestamp",
        "offset": 0,
        "slot": "8",
        "type": "t_uint256"
      },
      {
        "astId": 464,
        "contract": "contracts/Lottery.sol:Lottery",
        "label": "s_owner",
        "offset": 0,
        "slot": "9",
        "type": "t_address"
      },
      {
        "astId": 467,
        "contract": "contracts/Lottery.sol:Lottery",
        "label": "status",
        "offset": 20,
        "slot": "9",
        "type": "t_enum(Status)437"
      }
    ],
    "types": {
      "t_address": {
        "encoding": "inplace",
        "label": "address",
        "numberOfBytes": "20"
      },
      "t_address_payable": {
        "encoding": "inplace",
        "label": "address payable",
        "numberOfBytes": "20"
      },
      "t_array(t_address_payable)dyn_storage": {
        "base": "t_address_payable",
        "encoding": "dynamic_array",
        "label": "address payable[]",
        "numberOfBytes": "32"
      },
      "t_bytes32": {
        "encoding": "inplace",
        "label": "bytes32",
        "numberOfBytes": "32"
      },
      "t_contract(VRFCoordinatorV2Interface)409": {
        "encoding": "inplace",
        "label": "contract VRFCoordinatorV2Interface",
        "numberOfBytes": "20"
      },
      "t_enum(Status)437": {
        "encoding": "inplace",
        "label": "enum Lottery.Status",
        "numberOfBytes": "1"
      },
      "t_mapping(t_address,t_uint256)": {
        "encoding": "mapping",
        "key": "t_address",
        "label": "mapping(address => uint256)",
        "numberOfBytes": "32",
        "value": "t_uint256"
      },
      "t_uint16": {
        "encoding": "inplace",
        "label": "uint16",
        "numberOfBytes": "2"
      },
      "t_uint256": {
        "encoding": "inplace",
        "label": "uint256",
        "numberOfBytes": "32"
      },
      "t_uint32": {
        "encoding": "inplace",
        "label": "uint32",
        "numberOfBytes": "4"
      },
      "t_uint64": {
        "encoding": "inplace",
        "label": "uint64",
        "numberOfBytes": "8"
      }
    }
  }
}