{
  "address": "0x5FbDB2315678afecb367f032d93F642f64180aa3",
  "abi": [
    {
      "inputs": [
        {
          "internalType": "uint96",
          "name": "_baseFee",
          "type": "uint96"
        },
        {
          "internalType": "uint96",
          "name": "_gasPriceLink",
          "type": "uint96"
        }
      ],
      "stateMutability": "nonpayable",
      "type": "constructor"
    },
    {
      "inputs": [],
      "name": "InsufficientBalance",
      "type": "error"
    },
    {
      "inputs": [],
      "name": "InvalidConsumer",
      "type": "error"
    },
    {
      "inputs": [],
      "name": "InvalidRandomWords",
      "type": "error"
    },
    {
      "inputs": [],
      "name": "InvalidSubscription",
      "type": "error"
    },
    {
      "inputs": [
        {
          "internalType": "address",
          "name": "owner",
          "type": "address"
        }
      ],
      "name": "MustBeSubOwner",
      "type": "error"
    },
    {
      "inputs": [],
      "name": "TooManyConsumers",
      "type": "error"
    },
    {
      "anonymous": false,
      "inputs": [
        {
          "indexed": true,
          "internalType": "uint64",
          "name": "subId",
          "type": "uint64"
        },
        {
          "indexed": false,
          "internalType": "address",
          "name": "consumer",
          "type": "address"
        }
      ],
      "name": "ConsumerAdded",
      "type": "event"
    },
    {
      "anonymous": false,
      "inputs": [
        {
          "indexed": true,
          "internalType": "uint64",
          "name": "subId",
          "type": "uint64"
        },
        {
          "indexed": false,
          "internalType": "address",
          "name": "consumer",
          "type": "address"
        }
      ],
      "name": "ConsumerRemoved",
      "type": "event"
    },
    {
      "anonymous": false,
      "inputs": [
        {
          "indexed": true,
          "internalType": "uint256",
          "name": "requestId",
          "type": "uint256"
        },
        {
          "indexed": false,
          "internalType": "uint256",
          "name": "outputSeed",
          "type": "uint256"
        },
        {
          "indexed": false,
          "internalType": "uint96",
          "name": "payment",
          "type": "uint96"
        },
        {
          "indexed": false,
          "internalType": "bool",
          "name": "success",
          "type": "bool"
        }
      ],
      "name": "RandomWordsFulfilled",
      "type": "event"
    },
    {
      "anonymous": false,
      "inputs": [
        {
          "indexed": true,
          "internalType": "bytes32",
          "name": "keyHash",
          "type": "bytes32"
        },
        {
          "indexed": false,
          "internalType": "uint256",
          "name": "requestId",
          "type": "uint256"
        },
        {
          "indexed": false,
          "internalType": "uint256",
          "name": "preSeed",
          "type": "uint256"
        },
        {
          "indexed": true,
          "internalType": "uint64",
          "name": "subId",
          "type": "uint64"
        },
        {
          "indexed": false,
          "internalType": "uint16",
          "name": "minimumRequestConfirmations",
          "type": "uint16"
        },
        {
          "indexed": false,
          "internalType": "uint32",
          "name": "callbackGasLimit",
          "type": "uint32"
        },
        {
          "indexed": false,
          "internalType": "uint32",
          "name": "numWords",
          "type": "uint32"
        },
        {
          "indexed": true,
          "internalType": "address",
          "name": "sender",
          "type": "address"
        }
      ],
      "name": "RandomWordsRequested",
      "type": "event"
    },
    {
      "anonymous": false,
      "inputs": [
        {
          "indexed": true,
          "internalType": "uint64",
          "name": "subId",
          "type": "uint64"
        },
        {
          "indexed": false,
          "internalType": "address",
          "name": "to",
          "type": "address"
        },
        {
          "indexed": false,
          "internalType": "uint256",
          "name": "amount",
          "type": "uint256"
        }
      ],
      "name": "SubscriptionCanceled",
      "type": "event"
    },
    {
      "anonymous": false,
      "inputs": [
        {
          "indexed": true,
          "internalType": "uint64",
          "name": "subId",
          "type": "uint64"
        },
        {
          "indexed": false,
          "internalType": "address",
          "name": "owner",
          "type": "address"
        }
      ],
      "name": "SubscriptionCreated",
      "type": "event"
    },
    {
      "anonymous": false,
      "inputs": [
        {
          "indexed": true,
          "internalType": "uint64",
          "name": "subId",
          "type": "uint64"
        },
        {
          "indexed": false,
          "internalType": "uint256",
          "name": "oldBalance",
          "type": "uint256"
        },
        {
          "indexed": false,
          "internalType": "uint256",
          "name": "newBalance",
          "type": "uint256"
        }
      ],
      "name": "SubscriptionFunded",
      "type": "event"
    },
    {
      "inputs": [],
      "name": "BASE_FEE",
      "outputs": [
        {
          "internalType": "uint96",
          "name": "",
          "type": "uint96"
        }
      ],
      "stateMutability": "view",
      "type": "function"
    },
    {
      "inputs": [],
      "name": "GAS_PRICE_LINK",
      "outputs": [
        {
          "internalType": "uint96",
          "name": "",
          "type": "uint96"
        }
      ],
      "stateMutability": "view",
      "type": "function"
    },
    {
      "inputs": [],
      "name": "MAX_CONSUMERS",
      "outputs": [
        {
          "internalType": "uint16",
          "name": "",
          "type": "uint16"
        }
      ],
      "stateMutability": "view",
      "type": "function"
    },
    {
      "inputs": [
        {
          "internalType": "uint64",
          "name": "_subId",
          "type": "uint64"
        }
      ],
      "name": "acceptSubscriptionOwnerTransfer",
      "outputs": [],
      "stateMutability": "pure",
      "type": "function"
    },
    {
      "inputs": [
        {
          "internalType": "uint64",
          "name": "_subId",
          "type": "uint64"
        },
        {
          "internalType": "address",
          "name": "_consumer",
          "type": "address"
        }
      ],
      "name": "addConsumer",
      "outputs": [],
      "stateMutability": "nonpayable",
      "type": "function"
    },
    {
      "inputs": [
        {
          "internalType": "uint64",
          "name": "_subId",
          "type": "uint64"
        },
        {
          "internalType": "address",
          "name": "_to",
          "type": "address"
        }
      ],
      "name": "cancelSubscription",
      "outputs": [],
      "stateMutability": "nonpayable",
      "type": "function"
    },
    {
      "inputs": [
        {
          "internalType": "uint64",
          "name": "_subId",
          "type": "uint64"
        },
        {
          "internalType": "address",
          "name": "_consumer",
          "type": "address"
        }
      ],
      "name": "consumerIsAdded",
      "outputs": [
        {
          "internalType": "bool",
          "name": "",
          "type": "bool"
        }
      ],
      "stateMutability": "view",
      "type": "function"
    },
    {
      "inputs": [],
      "name": "createSubscription",
      "outputs": [
        {
          "internalType": "uint64",
          "name": "_subId",
          "type": "uint64"
        }
      ],
      "stateMutability": "nonpayable",
      "type": "function"
    },
    {
      "inputs": [
        {
          "internalType": "uint256",
          "name": "_requestId",
          "type": "uint256"
        },
        {
          "internalType": "address",
          "name": "_consumer",
          "type": "address"
        }
      ],
      "name": "fulfillRandomWords",
      "outputs": [],
      "stateMutability": "nonpayable",
      "type": "function"
    },
    {
      "inputs": [
        {
          "internalType": "uint256",
          "name": "_requestId",
          "type": "uint256"
        },
        {
          "internalType": "address",
          "name": "_consumer",
          "type": "address"
        },
        {
          "internalType": "uint256[]",
          "name": "_words",
          "type": "uint256[]"
        }
      ],
      "name": "fulfillRandomWordsWithOverride",
      "outputs": [],
      "stateMutability": "nonpayable",
      "type": "function"
    },
    {
      "inputs": [
        {
          "internalType": "uint64",
          "name": "_subId",
          "type": "uint64"
        },
        {
          "internalType": "uint96",
          "name": "_amount",
          "type": "uint96"
        }
      ],
      "name": "fundSubscription",
      "outputs": [],
      "stateMutability": "nonpayable",
      "type": "function"
    },
    {
      "inputs": [],
      "name": "getConfig",
      "outputs": [
        {
          "internalType": "uint16",
          "name": "minimumRequestConfirmations",
          "type": "uint16"
        },
        {
          "internalType": "uint32",
          "name": "maxGasLimit",
          "type": "uint32"
        },
        {
          "internalType": "uint32",
          "name": "stalenessSeconds",
          "type": "uint32"
        },
        {
          "internalType": "uint32",
          "name": "gasAfterPaymentCalculation",
          "type": "uint32"
        }
      ],
      "stateMutability": "view",
      "type": "function"
    },
    {
      "inputs": [],
      "name": "getFallbackWeiPerUnitLink",
      "outputs": [
        {
          "internalType": "int256",
          "name": "",
          "type": "int256"
        }
      ],
      "stateMutability": "view",
      "type": "function"
    },
    {
      "inputs": [],
      "name": "getFeeConfig",
      "outputs": [
        {
          "internalType": "uint32",
          "name": "fulfillmentFlatFeeLinkPPMTier1",
          "type": "uint32"
        },
        {
          "internalType": "uint32",
          "name": "fulfillmentFlatFeeLinkPPMTier2",
          "type": "uint32"
        },
        {
          "internalType": "uint32",
          "name": "fulfillmentFlatFeeLinkPPMTier3",
          "type": "uint32"
        },
        {
          "internalType": "uint32",
          "name": "fulfillmentFlatFeeLinkPPMTier4",
          "type": "uint32"
        },
        {
          "internalType": "uint32",
          "name": "fulfillmentFlatFeeLinkPPMTier5",
          "type": "uint32"
        },
        {
          "internalType": "uint24",
          "name": "reqsForTier2",
          "type": "uint24"
        },
        {
          "internalType": "uint24",
          "name": "reqsForTier3",
          "type": "uint24"
        },
        {
          "internalType": "uint24",
          "name": "reqsForTier4",
          "type": "uint24"
        },
        {
          "internalType": "uint24",
          "name": "reqsForTier5",
          "type": "uint24"
        }
      ],
      "stateMutability": "view",
      "type": "function"
    },
    {
      "inputs": [],
      "name": "getRequestConfig",
      "outputs": [
        {
          "internalType": "uint16",
          "name": "",
          "type": "uint16"
        },
        {
          "internalType": "uint32",
          "name": "",
          "type": "uint32"
        },
        {
          "internalType": "bytes32[]",
          "name": "",
          "type": "bytes32[]"
        }
      ],
      "stateMutability": "pure",
      "type": "function"
    },
    {
      "inputs": [
        {
          "internalType": "uint64",
          "name": "_subId",
          "type": "uint64"
        }
      ],
      "name": "getSubscription",
      "outputs": [
        {
          "internalType": "uint96",
          "name": "balance",
          "type": "uint96"
        },
        {
          "internalType": "uint64",
          "name": "reqCount",
          "type": "uint64"
        },
        {
          "internalType": "address",
          "name": "owner",
          "type": "address"
        },
        {
          "internalType": "address[]",
          "name": "consumers",
          "type": "address[]"
        }
      ],
      "stateMutability": "view",
      "type": "function"
    },
    {
      "inputs": [
        {
          "internalType": "uint64",
          "name": "subId",
          "type": "uint64"
        }
      ],
      "name": "pendingRequestExists",
      "outputs": [
        {
          "internalType": "bool",
          "name": "",
          "type": "bool"
        }
      ],
      "stateMutability": "view",
      "type": "function"
    },
    {
      "inputs": [
        {
          "internalType": "uint64",
          "name": "_subId",
          "type": "uint64"
        },
        {
          "internalType": "address",
          "name": "_consumer",
          "type": "address"
        }
      ],
      "name": "removeConsumer",
      "outputs": [],
      "stateMutability": "nonpayable",
      "type": "function"
    },
    {
      "inputs": [
        {
          "internalType": "bytes32",
          "name": "_keyHash",
          "type": "bytes32"
        },
        {
          "internalType": "uint64",
          "name": "_subId",
          "type": "uint64"
        },
        {
          "internalType": "uint16",
          "name": "_minimumRequestConfirmations",
          "type": "uint16"
        },
        {
          "internalType": "uint32",
          "name": "_callbackGasLimit",
          "type": "uint32"
        },
        {
          "internalType": "uint32",
          "name": "_numWords",
          "type": "uint32"
        }
      ],
      "name": "requestRandomWords",
      "outputs": [
        {
          "internalType": "uint256",
          "name": "",
          "type": "uint256"
        }
      ],
      "stateMutability": "nonpayable",
      "type": "function"
    },
    {
      "inputs": [
        {
          "internalType": "uint64",
          "name": "_subId",
          "type": "uint64"
        },
        {
          "internalType": "address",
          "name": "_newOwner",
          "type": "address"
        }
      ],
      "name": "requestSubscriptionOwnerTransfer",
      "outputs": [],
      "stateMutability": "pure",
      "type": "function"
    }
  ],
  "transactionHash": "0x49693680711576f2988e2e0ebcf88c414d41c9a6a1c10081fc61358ff883dd2b",
  "args": [
    "25000",
    1000000000
  ],
  "numDeployments": 1,
  "solcInputHash": "13d9986639128ab837cc35d022505f4d",
  "bytecode": "0x60e0604052606461ffff1660c09061ffff168152506001805560646002553480156200002a57600080fd5b5060405162002eda38038062002eda8339818101604052810190620000509190620000ee565b816bffffffffffffffffffffffff166080816bffffffffffffffffffffffff1681525050806bffffffffffffffffffffffff1660a0816bffffffffffffffffffffffff1681525050505062000135565b600080fd5b60006bffffffffffffffffffffffff82169050919050565b620000c881620000a5565b8114620000d457600080fd5b50565b600081519050620000e881620000bd565b92915050565b60008060408385031215620001085762000107620000a0565b5b60006200011885828601620000d7565b92505060206200012b85828601620000d7565b9150509250929050565b60805160a05160c051612d606200017a60003960008181610cf30152610e3d01526000818161079d01526115560152600081816107e20152610a080152612d606000f3fe608060405234801561001057600080fd5b506004361061012b5760003560e01c806382359740116100ad578063afc69b5311610071578063afc69b5314610317578063c3f909d414610333578063d7ae1d3014610354578063e82ad7d414610370578063ed5eb06d146103a05761012b565b806382359740146102705780639f87fad71461028c578063a21a23e4146102a8578063a410347f146102c6578063a47c7696146102e45761012b565b80635d3b1d30116100f45780635d3b1d30146101c45780635fbbc0d2146101f457806364d51a2a1461021a5780637341c10c14610238578063808974ff146102545761012b565b80620122911461013057806304c357cb1461015057806308e3898e1461016c578063356dac71146101885780633d18651e146101a6575b600080fd5b6101386103d0565b60405161014793929190611ee8565b60405180910390f35b61016a60048036038101906101659190611fd8565b610430565b005b610186600480360381019061018191906121a7565b61046b565b005b6101906109f7565b60405161019d919061222f565b60405180910390f35b6101ae610a06565b6040516101bb9190612271565b60405180910390f35b6101de60048036038101906101d99190612310565b610a2a565b6040516101eb919061239a565b60405180910390f35b6101fc610cb2565b604051610211999897969594939291906123d3565b60405180910390f35b610222610cf1565b60405161022f9190612460565b60405180910390f35b610252600480360381019061024d9190611fd8565b610d15565b005b61026e6004803603810190610269919061247b565b610fa1565b005b61028a600480360381019061028591906124bb565b610ff9565b005b6102a660048036038101906102a19190611fd8565b611034565b005b6102b061139f565b6040516102bd91906124f7565b60405180910390f35b6102ce611554565b6040516102db9190612271565b60405180910390f35b6102fe60048036038101906102f991906124bb565b611578565b60405161030e94939291906125df565b60405180910390f35b610331600480360381019061032c9190612657565b61177d565b005b61033b611947565b60405161034b9493929190612697565b60405180910390f35b61036e60048036038101906103699190611fd8565b611967565b005b61038a600480360381019061038591906124bb565b611b89565b60405161039791906126f7565b60405180910390f35b6103ba60048036038101906103b59190611fd8565b611bc6565b6040516103c791906126f7565b60405180910390f35b60008060606003621e8480600067ffffffffffffffff8111156103f6576103f5612064565b5b6040519080825280602002602001820160405280156104245781602001602082028036833780820191505090505b50925092509250909192565b6040517f08c379a00000000000000000000000000000000000000000000000000000000081526004016104629061276f565b60405180910390fd5b60005a905060006005600086815260200190815260200160002060000160009054906101000a900467ffffffffffffffff1667ffffffffffffffff16036104e7576040517f08c379a00000000000000000000000000000000000000000000000000000000081526004016104de906127db565b60405180910390fd5b6000600560008681526020019081526020016000206040518060600160405290816000820160009054906101000a900467ffffffffffffffff1667ffffffffffffffff1667ffffffffffffffff1681526020016000820160089054906101000a900463ffffffff1663ffffffff1663ffffffff16815260200160008201600c9054906101000a900463ffffffff1663ffffffff1663ffffffff16815250509050600083510361065e57806040015163ffffffff1667ffffffffffffffff8111156105b4576105b3612064565b5b6040519080825280602002602001820160405280156105e25781602001602082028036833780820191505090505b50925060005b816040015163ffffffff1681101561065857858160405160200161060d9291906127fb565b6040516020818303038152906040528051906020012060001c84828151811061063957610638612824565b5b602002602001018181525050808061065090612882565b9150506105e8565b506106a3565b806040015163ffffffff168351146106a2576040517f3f3df5b600000000000000000000000000000000000000000000000000000000815260040160405180910390fd5b5b600080631fe543e360e01b87866040516024016106c1929190612988565b604051602081830303815290604052907bffffffffffffffffffffffffffffffffffffffffffffffffffffffff19166020820180517bffffffffffffffffffffffffffffffffffffffffffffffffffffffff8381831617835250505050905060008673ffffffffffffffffffffffffffffffffffffffff16846020015163ffffffff16836040516107529190612a29565b60006040518083038160008787f1925050503d8060008114610790576040519150601f19603f3d011682016040523d82523d6000602084013e610795565b606091505b5050905060007f00000000000000000000000000000000000000000000000000000000000000006bffffffffffffffffffffffff165a876107d69190612a40565b6107e09190612a74565b7f00000000000000000000000000000000000000000000000000000000000000006bffffffffffffffffffffffff166108199190612ab6565b9050610832816bffffffffffffffffffffffff16611cfb565b806bffffffffffffffffffffffff1660036000876000015167ffffffffffffffff1667ffffffffffffffff16815260200190815260200160002060000160149054906101000a90046bffffffffffffffffffffffff166bffffffffffffffffffffffff1610156108ce576040517ff4d678b800000000000000000000000000000000000000000000000000000000815260040160405180910390fd5b8060036000876000015167ffffffffffffffff1667ffffffffffffffff16815260200190815260200160002060000160148282829054906101000a90046bffffffffffffffffffffffff166109239190612aea565b92506101000a8154816bffffffffffffffffffffffff02191690836bffffffffffffffffffffffff160217905550600560008a8152602001908152602001600020600080820160006101000a81549067ffffffffffffffff02191690556000820160086101000a81549063ffffffff021916905560008201600c6101000a81549063ffffffff02191690555050887f7dffc5ae5ee4e2e4df1651cf6ad329a73cebdb728f37ea0187b9b17e036756e48a83856040516109e493929190612b2a565b60405180910390a2505050505050505050565b6000660e35fa931a0000905090565b7f000000000000000000000000000000000000000000000000000000000000000081565b60008433610a388282611bc6565b610a6e576040517f71e8313700000000000000000000000000000000000000000000000000000000815260040160405180910390fd5b600073ffffffffffffffffffffffffffffffffffffffff16600360008967ffffffffffffffff1667ffffffffffffffff16815260200190815260200160002060000160009054906101000a900473ffffffffffffffffffffffffffffffffffffffff1673ffffffffffffffffffffffffffffffffffffffff1603610b1e576040517f1f6a65b600000000000000000000000000000000000000000000000000000000815260040160405180910390fd5b610b29600154611cfb565b610b34600254611cfb565b600060016000815480929190610b4990612882565b919050559050610b5881611cfb565b600060026000815480929190610b6d90612882565b919050559050610b7c81611cfb565b60405180606001604052808a67ffffffffffffffff1681526020018863ffffffff1681526020018763ffffffff168152506005600084815260200190815260200160002060008201518160000160006101000a81548167ffffffffffffffff021916908367ffffffffffffffff16021790555060208201518160000160086101000a81548163ffffffff021916908363ffffffff160217905550604082015181600001600c6101000a81548163ffffffff021916908363ffffffff1602179055509050503373ffffffffffffffffffffffffffffffffffffffff168967ffffffffffffffff168b7f63373d1c4696214b898952999c9aaec57dac1ee2723cec59bea6888f489a977285858d8d8d604051610c9a959493929190612b61565b60405180910390a48194505050505095945050505050565b6000806000806000806000806000620186a080620186a080620186a0600080600080985098509850985098509850985098509850909192939495969798565b7f000000000000000000000000000000000000000000000000000000000000000081565b816000600360008367ffffffffffffffff1667ffffffffffffffff16815260200190815260200160002060000160009054906101000a900473ffffffffffffffffffffffffffffffffffffffff169050600073ffffffffffffffffffffffffffffffffffffffff168173ffffffffffffffffffffffffffffffffffffffff1603610dcb576040517f1f6a65b600000000000000000000000000000000000000000000000000000000815260040160405180910390fd5b8073ffffffffffffffffffffffffffffffffffffffff163373ffffffffffffffffffffffffffffffffffffffff1614610e3b57806040517fd8a3fb52000000000000000000000000000000000000000000000000000000008152600401610e329190612bb4565b60405180910390fd5b7f000000000000000000000000000000000000000000000000000000000000000061ffff16600460008667ffffffffffffffff1667ffffffffffffffff1681526020019081526020016000208054905003610ec2576040517f05a48e0f00000000000000000000000000000000000000000000000000000000815260040160405180910390fd5b610ecc8484611bc6565b610f9b57600460008567ffffffffffffffff1667ffffffffffffffff168152602001908152602001600020839080600181540180825580915050600190039060005260206000200160009091909190916101000a81548173ffffffffffffffffffffffffffffffffffffffff021916908373ffffffffffffffffffffffffffffffffffffffff1602179055508367ffffffffffffffff167f752ead9f4536ec1319ee3a5a604e1d65eded22e0924251552ba14ae4faa1bbc384604051610f929190612bb4565b60405180910390a25b50505050565b610ff58282600067ffffffffffffffff811115610fc157610fc0612064565b5b604051908082528060200260200182016040528015610fef5781602001602082028036833780820191505090505b5061046b565b5050565b6040517f08c379a000000000000000000000000000000000000000000000000000000000815260040161102b9061276f565b60405180910390fd5b816000600360008367ffffffffffffffff1667ffffffffffffffff16815260200190815260200160002060000160009054906101000a900473ffffffffffffffffffffffffffffffffffffffff169050600073ffffffffffffffffffffffffffffffffffffffff168173ffffffffffffffffffffffffffffffffffffffff16036110ea576040517f1f6a65b600000000000000000000000000000000000000000000000000000000815260040160405180910390fd5b8073ffffffffffffffffffffffffffffffffffffffff163373ffffffffffffffffffffffffffffffffffffffff161461115a57806040517fd8a3fb520000000000000000000000000000000000000000000000000000000081526004016111519190612bb4565b60405180910390fd5b83836111668282611bc6565b61119c576040517f71e8313700000000000000000000000000000000000000000000000000000000815260040160405180910390fd5b6000600460008867ffffffffffffffff1667ffffffffffffffff168152602001908152602001600020905060005b8180549050811015611353578673ffffffffffffffffffffffffffffffffffffffff16828281548110611200576111ff612824565b5b9060005260206000200160009054906101000a900473ffffffffffffffffffffffffffffffffffffffff1673ffffffffffffffffffffffffffffffffffffffff1603611340576000826001848054905061125a9190612a40565b8154811061126b5761126a612824565b5b9060005260206000200160009054906101000a900473ffffffffffffffffffffffffffffffffffffffff169050808383815481106112ac576112ab612824565b5b9060005260206000200160006101000a81548173ffffffffffffffffffffffffffffffffffffffff021916908373ffffffffffffffffffffffffffffffffffffffff1602179055508280548061130557611304612bcf565b5b6001900381819060005260206000200160006101000a81549073ffffffffffffffffffffffffffffffffffffffff0219169055905550611353565b808061134b90612882565b9150506111ca565b508667ffffffffffffffff167ff9bc9d5b5733d904409def43a5ecc888dbdac9a95687780d8fd489d3bb3813fc8760405161138e9190612bb4565b60405180910390a250505050505050565b600080600081819054906101000a900467ffffffffffffffff16809291906113c690612bfe565b91906101000a81548167ffffffffffffffff021916908367ffffffffffffffff1602179055505060405180604001604052803373ffffffffffffffffffffffffffffffffffffffff16815260200160006bffffffffffffffffffffffff16815250600360008060009054906101000a900467ffffffffffffffff1667ffffffffffffffff1667ffffffffffffffff16815260200190815260200160002060008201518160000160006101000a81548173ffffffffffffffffffffffffffffffffffffffff021916908373ffffffffffffffffffffffffffffffffffffffff16021790555060208201518160000160146101000a8154816bffffffffffffffffffffffff02191690836bffffffffffffffffffffffff16021790555090505060008054906101000a900467ffffffffffffffff1667ffffffffffffffff167f464722b4166576d3dcbba877b999bc35cf911f4eaf434b7eba68fa113951d0bf336040516115329190612bb4565b60405180910390a260008054906101000a900467ffffffffffffffff16905090565b7f000000000000000000000000000000000000000000000000000000000000000081565b60008060006060600073ffffffffffffffffffffffffffffffffffffffff16600360008767ffffffffffffffff1667ffffffffffffffff16815260200190815260200160002060000160009054906101000a900473ffffffffffffffffffffffffffffffffffffffff1673ffffffffffffffffffffffffffffffffffffffff160361162f576040517f1f6a65b600000000000000000000000000000000000000000000000000000000815260040160405180910390fd5b600360008667ffffffffffffffff1667ffffffffffffffff16815260200190815260200160002060000160149054906101000a90046bffffffffffffffffffffffff166000600360008867ffffffffffffffff1667ffffffffffffffff16815260200190815260200160002060000160009054906101000a900473ffffffffffffffffffffffffffffffffffffffff16600460008967ffffffffffffffff1667ffffffffffffffff1681526020019081526020016000208080548060200260200160405190810160405280929190818152602001828054801561176757602002820191906000526020600020905b8160009054906101000a900473ffffffffffffffffffffffffffffffffffffffff1673ffffffffffffffffffffffffffffffffffffffff168152602001906001019080831161171d575b5050505050905093509350935093509193509193565b600073ffffffffffffffffffffffffffffffffffffffff16600360008467ffffffffffffffff1667ffffffffffffffff16815260200190815260200160002060000160009054906101000a900473ffffffffffffffffffffffffffffffffffffffff1673ffffffffffffffffffffffffffffffffffffffff160361182d576040517f1f6a65b600000000000000000000000000000000000000000000000000000000815260040160405180910390fd5b6000600360008467ffffffffffffffff1667ffffffffffffffff16815260200190815260200160002060000160149054906101000a90046bffffffffffffffffffffffff16905081600360008567ffffffffffffffff1667ffffffffffffffff16815260200190815260200160002060000160148282829054906101000a90046bffffffffffffffffffffffff166118c59190612c2e565b92506101000a8154816bffffffffffffffffffffffff02191690836bffffffffffffffffffffffff1602179055508267ffffffffffffffff167fd39ec07f4e209f627a4c427971473820dc129761ba28de8906bd56f57101d4f882848461192c9190612c2e565b60405161193a929190612ca9565b60405180910390a2505050565b6000806000806004622625a0610a8c618205935093509350935090919293565b816000600360008367ffffffffffffffff1667ffffffffffffffff16815260200190815260200160002060000160009054906101000a900473ffffffffffffffffffffffffffffffffffffffff169050600073ffffffffffffffffffffffffffffffffffffffff168173ffffffffffffffffffffffffffffffffffffffff1603611a1d576040517f1f6a65b600000000000000000000000000000000000000000000000000000000815260040160405180910390fd5b8073ffffffffffffffffffffffffffffffffffffffff163373ffffffffffffffffffffffffffffffffffffffff1614611a8d57806040517fd8a3fb52000000000000000000000000000000000000000000000000000000008152600401611a849190612bb4565b60405180910390fd5b8367ffffffffffffffff167fe8ed5b475a5b5987aa9165e8731bb78043f39eee32ec5a1169a89e27fcd4981584600360008867ffffffffffffffff1667ffffffffffffffff16815260200190815260200160002060000160149054906101000a90046bffffffffffffffffffffffff16604051611b0b929190612cd2565b60405180910390a2600360008567ffffffffffffffff1667ffffffffffffffff168152602001908152602001600020600080820160006101000a81549073ffffffffffffffffffffffffffffffffffffffff02191690556000820160146101000a8154906bffffffffffffffffffffffff0219169055505050505050565b60006040517f08c379a0000000000000000000000000000000000000000000000000000000008152600401611bbd9061276f565b60405180910390fd5b600080600460008567ffffffffffffffff1667ffffffffffffffff168152602001908152602001600020805480602002602001604051908101604052809291908181526020018280548015611c7057602002820191906000526020600020905b8160009054906101000a900473ffffffffffffffffffffffffffffffffffffffff1673ffffffffffffffffffffffffffffffffffffffff1681526020019060010190808311611c26575b5050505050905060005b8151811015611cee578373ffffffffffffffffffffffffffffffffffffffff16828281518110611cad57611cac612824565b5b602002602001015173ffffffffffffffffffffffffffffffffffffffff1603611cdb57600192505050611cf5565b8080611ce690612882565b915050611c7a565b5060009150505b92915050565b611d9181604051602401611d0f919061239a565b6040516020818303038152906040527ff82c50f1000000000000000000000000000000000000000000000000000000007bffffffffffffffffffffffffffffffffffffffffffffffffffffffff19166020820180517bffffffffffffffffffffffffffffffffffffffffffffffffffffffff8381831617835250505050611d94565b50565b611dab81611da3611dae611dcf565b63ffffffff16565b50565b60006a636f6e736f6c652e6c6f679050600080835160208501845afa505050565b611dda819050919050565b611de2612cfb565b565b600061ffff82169050919050565b611dfb81611de4565b82525050565b600063ffffffff82169050919050565b611e1a81611e01565b82525050565b600081519050919050565b600082825260208201905092915050565b6000819050602082019050919050565b6000819050919050565b611e5f81611e4c565b82525050565b6000611e718383611e56565b60208301905092915050565b6000602082019050919050565b6000611e9582611e20565b611e9f8185611e2b565b9350611eaa83611e3c565b8060005b83811015611edb578151611ec28882611e65565b9750611ecd83611e7d565b925050600181019050611eae565b5085935050505092915050565b6000606082019050611efd6000830186611df2565b611f0a6020830185611e11565b8181036040830152611f1c8184611e8a565b9050949350505050565b6000604051905090565b600080fd5b600080fd5b600067ffffffffffffffff82169050919050565b611f5781611f3a565b8114611f6257600080fd5b50565b600081359050611f7481611f4e565b92915050565b600073ffffffffffffffffffffffffffffffffffffffff82169050919050565b6000611fa582611f7a565b9050919050565b611fb581611f9a565b8114611fc057600080fd5b50565b600081359050611fd281611fac565b92915050565b60008060408385031215611fef57611fee611f30565b5b6000611ffd85828601611f65565b925050602061200e85828601611fc3565b9150509250929050565b6000819050919050565b61202b81612018565b811461203657600080fd5b50565b60008135905061204881612022565b92915050565b600080fd5b6000601f19601f8301169050919050565b7f4e487b7100000000000000000000000000000000000000000000000000000000600052604160045260246000fd5b61209c82612053565b810181811067ffffffffffffffff821117156120bb576120ba612064565b5b80604052505050565b60006120ce611f26565b90506120da8282612093565b919050565b600067ffffffffffffffff8211156120fa576120f9612064565b5b602082029050602081019050919050565b600080fd5b600061212361211e846120df565b6120c4565b905080838252602082019050602084028301858111156121465761214561210b565b5b835b8181101561216f578061215b8882612039565b845260208401935050602081019050612148565b5050509392505050565b600082601f83011261218e5761218d61204e565b5b813561219e848260208601612110565b91505092915050565b6000806000606084860312156121c0576121bf611f30565b5b60006121ce86828701612039565b93505060206121df86828701611fc3565b925050604084013567ffffffffffffffff811115612200576121ff611f35565b5b61220c86828701612179565b9150509250925092565b6000819050919050565b61222981612216565b82525050565b60006020820190506122446000830184612220565b92915050565b60006bffffffffffffffffffffffff82169050919050565b61226b8161224a565b82525050565b60006020820190506122866000830184612262565b92915050565b61229581611e4c565b81146122a057600080fd5b50565b6000813590506122b28161228c565b92915050565b6122c181611de4565b81146122cc57600080fd5b50565b6000813590506122de816122b8565b92915050565b6122ed81611e01565b81146122f857600080fd5b50565b60008135905061230a816122e4565b92915050565b600080600080600060a0868803121561232c5761232b611f30565b5b600061233a888289016122a3565b955050602061234b88828901611f65565b945050604061235c888289016122cf565b935050606061236d888289016122fb565b925050608061237e888289016122fb565b9150509295509295909350565b61239481612018565b82525050565b60006020820190506123af600083018461238b565b92915050565b600062ffffff82169050919050565b6123cd816123b5565b82525050565b6000610120820190506123e9600083018c611e11565b6123f6602083018b611e11565b612403604083018a611e11565b6124106060830189611e11565b61241d6080830188611e11565b61242a60a08301876123c4565b61243760c08301866123c4565b61244460e08301856123c4565b6124526101008301846123c4565b9a9950505050505050505050565b60006020820190506124756000830184611df2565b92915050565b6000806040838503121561249257612491611f30565b5b60006124a085828601612039565b92505060206124b185828601611fc3565b9150509250929050565b6000602082840312156124d1576124d0611f30565b5b60006124df84828501611f65565b91505092915050565b6124f181611f3a565b82525050565b600060208201905061250c60008301846124e8565b92915050565b61251b81611f9a565b82525050565b600081519050919050565b600082825260208201905092915050565b6000819050602082019050919050565b61255681611f9a565b82525050565b6000612568838361254d565b60208301905092915050565b6000602082019050919050565b600061258c82612521565b612596818561252c565b93506125a18361253d565b8060005b838110156125d25781516125b9888261255c565b97506125c483612574565b9250506001810190506125a5565b5085935050505092915050565b60006080820190506125f46000830187612262565b61260160208301866124e8565b61260e6040830185612512565b81810360608301526126208184612581565b905095945050505050565b6126348161224a565b811461263f57600080fd5b50565b6000813590506126518161262b565b92915050565b6000806040838503121561266e5761266d611f30565b5b600061267c85828601611f65565b925050602061268d85828601612642565b9150509250929050565b60006080820190506126ac6000830187611df2565b6126b96020830186611e11565b6126c66040830185611e11565b6126d36060830184611e11565b95945050505050565b60008115159050919050565b6126f1816126dc565b82525050565b600060208201905061270c60008301846126e8565b92915050565b600082825260208201905092915050565b7f6e6f7420696d706c656d656e7465640000000000000000000000000000000000600082015250565b6000612759600f83612712565b915061276482612723565b602082019050919050565b600060208201905081810360008301526127888161274c565b9050919050565b7f6e6f6e6578697374656e74207265717565737400000000000000000000000000600082015250565b60006127c5601383612712565b91506127d08261278f565b602082019050919050565b600060208201905081810360008301526127f4816127b8565b9050919050565b6000604082019050612810600083018561238b565b61281d602083018461238b565b9392505050565b7f4e487b7100000000000000000000000000000000000000000000000000000000600052603260045260246000fd5b7f4e487b7100000000000000000000000000000000000000000000000000000000600052601160045260246000fd5b600061288d82612018565b91507fffffffffffffffffffffffffffffffffffffffffffffffffffffffffffffffff82036128bf576128be612853565b5b600182019050919050565b600081519050919050565b600082825260208201905092915050565b6000819050602082019050919050565b6128ff81612018565b82525050565b600061291183836128f6565b60208301905092915050565b6000602082019050919050565b6000612935826128ca565b61293f81856128d5565b935061294a836128e6565b8060005b8381101561297b5781516129628882612905565b975061296d8361291d565b92505060018101905061294e565b5085935050505092915050565b600060408201905061299d600083018561238b565b81810360208301526129af818461292a565b90509392505050565b600081519050919050565b600081905092915050565b60005b838110156129ec5780820151818401526020810190506129d1565b60008484015250505050565b6000612a03826129b8565b612a0d81856129c3565b9350612a1d8185602086016129ce565b80840191505092915050565b6000612a3582846129f8565b915081905092915050565b6000612a4b82612018565b9150612a5683612018565b9250828203905081811115612a6e57612a6d612853565b5b92915050565b6000612a7f82612018565b9150612a8a83612018565b9250828202612a9881612018565b91508282048414831517612aaf57612aae612853565b5b5092915050565b6000612ac182612018565b9150612acc83612018565b9250828201905080821115612ae457612ae3612853565b5b92915050565b6000612af58261224a565b9150612b008361224a565b925082820390506bffffffffffffffffffffffff811115612b2457612b23612853565b5b92915050565b6000606082019050612b3f600083018661238b565b612b4c6020830185612262565b612b5960408301846126e8565b949350505050565b600060a082019050612b76600083018861238b565b612b83602083018761238b565b612b906040830186611df2565b612b9d6060830185611e11565b612baa6080830184611e11565b9695505050505050565b6000602082019050612bc96000830184612512565b92915050565b7f4e487b7100000000000000000000000000000000000000000000000000000000600052603160045260246000fd5b6000612c0982611f3a565b915067ffffffffffffffff8203612c2357612c22612853565b5b600182019050919050565b6000612c398261224a565b9150612c448361224a565b925082820190506bffffffffffffffffffffffff811115612c6857612c67612853565b5b92915050565b6000819050919050565b6000612c93612c8e612c898461224a565b612c6e565b612018565b9050919050565b612ca381612c78565b82525050565b6000604082019050612cbe6000830185612c9a565b612ccb6020830184612c9a565b9392505050565b6000604082019050612ce76000830185612512565b612cf46020830184612c9a565b9392505050565b7f4e487b7100000000000000000000000000000000000000000000000000000000600052605160045260246000fdfea264697066735822122099d0e873eb878467351a529305b7577a4aef7c3b910ee07374a581e735dc29c964736f6c63430008130033",
  "devdoc": {
    "kind": "dev",
    "methods": {
      "createSubscription()": {
        "details": "You can manage the consumer set dynamically with addConsumer/removeConsumer.Note to fund the subscription, use transferAndCall. For exampleLINKTOKEN.transferAndCall(address(COORDINATOR),amount,abi.encode(subId));",
        "returns": {
          "_subId": "- A unique subscription id."
        }
      },
      "fulfillRandomWords(uint256,address)": {
        "details": "This mock uses a simplified formula for calculating payment amount and gas usage, and doesnot account for all edge cases handled in the real VRF coordinator. When making requestsagainst the real coordinator a small amount of additional LINK is required.",
        "params": {
          "_consumer": "the VRF randomness consumer to send the result to",
          "_requestId": "the request to fulfill"
        }
      },
      "fulfillRandomWordsWithOverride(uint256,address,uint256[])": {
        "params": {
          "_consumer": "the VRF randomness consumer to send the result to",
          "_requestId": "the request to fulfill",
          "_words": "user-provided random words"
        }
      },
      "fundSubscription(uint64,uint96)": {
        "params": {
          "_amount": "the amount to fund",
          "_subId": "the subscription to fund"
        }
      },
      "getRequestConfig()": {
        "returns": {
          "_0": "minimumRequestConfirmations global min for request confirmations",
          "_1": "maxGasLimit global max for request gas limit",
          "_2": "s_provingKeyHashes list of registered key hashes"
        }
      }
    },
    "version": 1
  },
  "userdoc": {
    "kind": "user",
    "methods": {
      "createSubscription()": {
        "notice": "Create a VRF subscription."
      },
      "fulfillRandomWords(uint256,address)": {
        "notice": "fulfillRandomWords fulfills the given request, sending the random words to the suppliedconsumer."
      },
      "fulfillRandomWordsWithOverride(uint256,address,uint256[])": {
        "notice": "fulfillRandomWordsWithOverride allows the user to pass in their own random words."
      },
      "fundSubscription(uint64,uint96)": {
        "notice": "fundSubscription allows funding a subscription with an arbitrary amount for testing."
      },
      "getRequestConfig()": {
        "notice": "Get configuration relevant for making requests"
      }
    },
    "version": 1
  },
  "storageLayout": {
    "storage": [
      {
        "astId": 341,
        "contract": "@chainlink/contracts/src/v0.8/mocks/VRFCoordinatorV2Mock.sol:VRFCoordinatorV2Mock",
        "label": "s_currentSubId",
        "offset": 0,
        "slot": "0",
        "type": "t_uint64"
      },
      {
        "astId": 344,
        "contract": "@chainlink/contracts/src/v0.8/mocks/VRFCoordinatorV2Mock.sol:VRFCoordinatorV2Mock",
        "label": "s_nextRequestId",
        "offset": 0,
        "slot": "1",
        "type": "t_uint256"
      },
      {
        "astId": 347,
        "contract": "@chainlink/contracts/src/v0.8/mocks/VRFCoordinatorV2Mock.sol:VRFCoordinatorV2Mock",
        "label": "s_nextPreSeed",
        "offset": 0,
        "slot": "2",
        "type": "t_uint256"
      },
      {
        "astId": 357,
        "contract": "@chainlink/contracts/src/v0.8/mocks/VRFCoordinatorV2Mock.sol:VRFCoordinatorV2Mock",
        "label": "s_subscriptions",
        "offset": 0,
        "slot": "3",
        "type": "t_mapping(t_uint64,t_struct(Subscription)352_storage)"
      },
      {
        "astId": 362,
        "contract": "@chainlink/contracts/src/v0.8/mocks/VRFCoordinatorV2Mock.sol:VRFCoordinatorV2Mock",
        "label": "s_consumers",
        "offset": 0,
        "slot": "4",
        "type": "t_mapping(t_uint64,t_array(t_address)dyn_storage)"
      },
      {
        "astId": 374,
        "contract": "@chainlink/contracts/src/v0.8/mocks/VRFCoordinatorV2Mock.sol:VRFCoordinatorV2Mock",
        "label": "s_requests",
        "offset": 0,
        "slot": "5",
        "type": "t_mapping(t_uint256,t_struct(Request)369_storage)"
      }
    ],
    "types": {
      "t_address": {
        "encoding": "inplace",
        "label": "address",
        "numberOfBytes": "20"
      },
      "t_array(t_address)dyn_storage": {
        "base": "t_address",
        "encoding": "dynamic_array",
        "label": "address[]",
        "numberOfBytes": "32"
      },
      "t_mapping(t_uint256,t_struct(Request)369_storage)": {
        "encoding": "mapping",
        "key": "t_uint256",
        "label": "mapping(uint256 => struct VRFCoordinatorV2Mock.Request)",
        "numberOfBytes": "32",
        "value": "t_struct(Request)369_storage"
      },
      "t_mapping(t_uint64,t_array(t_address)dyn_storage)": {
        "encoding": "mapping",
        "key": "t_uint64",
        "label": "mapping(uint64 => address[])",
        "numberOfBytes": "32",
        "value": "t_array(t_address)dyn_storage"
      },
      "t_mapping(t_uint64,t_struct(Subscription)352_storage)": {
        "encoding": "mapping",
        "key": "t_uint64",
        "label": "mapping(uint64 => struct VRFCoordinatorV2Mock.Subscription)",
        "numberOfBytes": "32",
        "value": "t_struct(Subscription)352_storage"
      },
      "t_struct(Request)369_storage": {
        "encoding": "inplace",
        "label": "struct VRFCoordinatorV2Mock.Request",
        "members": [
          {
            "astId": 364,
            "contract": "@chainlink/contracts/src/v0.8/mocks/VRFCoordinatorV2Mock.sol:VRFCoordinatorV2Mock",
            "label": "subId",
            "offset": 0,
            "slot": "0",
            "type": "t_uint64"
          },
          {
            "astId": 366,
            "contract": "@chainlink/contracts/src/v0.8/mocks/VRFCoordinatorV2Mock.sol:VRFCoordinatorV2Mock",
            "label": "callbackGasLimit",
            "offset": 8,
            "slot": "0",
            "type": "t_uint32"
          },
          {
            "astId": 368,
            "contract": "@chainlink/contracts/src/v0.8/mocks/VRFCoordinatorV2Mock.sol:VRFCoordinatorV2Mock",
            "label": "numWords",
            "offset": 12,
            "slot": "0",
            "type": "t_uint32"
          }
        ],
        "numberOfBytes": "32"
      },
      "t_struct(Subscription)352_storage": {
        "encoding": "inplace",
        "label": "struct VRFCoordinatorV2Mock.Subscription",
        "members": [
          {
            "astId": 349,
            "contract": "@chainlink/contracts/src/v0.8/mocks/VRFCoordinatorV2Mock.sol:VRFCoordinatorV2Mock",
            "label": "owner",
            "offset": 0,
            "slot": "0",
            "type": "t_address"
          },
          {
            "astId": 351,
            "contract": "@chainlink/contracts/src/v0.8/mocks/VRFCoordinatorV2Mock.sol:VRFCoordinatorV2Mock",
            "label": "balance",
            "offset": 20,
            "slot": "0",
            "type": "t_uint96"
          }
        ],
        "numberOfBytes": "32"
      },
      "t_uint256": {
        "encoding": "inplace",
        "label": "uint256",
        "numberOfBytes": "32"
      },
      "t_uint32": {
        "encoding": "inplace",
        "label": "uint32",
        "numberOfBytes": "4"
      },
      "t_uint64": {
        "encoding": "inplace",
        "label": "uint64",
        "numberOfBytes": "8"
      },
      "t_uint96": {
        "encoding": "inplace",
        "label": "uint96",
        "numberOfBytes": "12"
      }
    }
  }
}