{
  "address": "0x2C32badc18359d55899D51db05cCEc42ab2e9Acc",
  "abi": [
    {
      "inputs": [
        {
          "internalType": "address",
          "name": "_coordinator",
          "type": "address"
        },
        {
          "internalType": "uint256",
          "name": "_minimumFee",
          "type": "uint256"
        },
        {
          "internalType": "uint64",
          "name": "subscriptionId",
          "type": "uint64"
        },
        {
          "internalType": "bytes32",
          "name": "_keyHash",
          "type": "bytes32"
        },
        {
          "internalType": "uint32",
          "name": "_callbackGasLimit",
          "type": "uint32"
        },
        {
          "internalType": "uint16",
          "name": "_requestConfirmations",
          "type": "uint16"
        },
        {
          "internalType": "uint32",
          "name": "_numWords",
          "type": "uint32"
        },
        {
          "internalType": "uint256",
          "name": "updatei_interval",
          "type": "uint256"
        }
      ],
      "stateMutability": "nonpayable",
      "type": "constructor"
    },
    {
      "inputs": [],
      "name": "Lottery__balanceNotSent",
      "type": "error"
    },
    {
      "inputs": [],
      "name": "Lottery__ethNotEnough",
      "type": "error"
    },
    {
      "inputs": [],
      "name": "Lottery__failedWinnerTransfer",
      "type": "error"
    },
    {
      "inputs": [],
      "name": "Lottery__raffleClosed",
      "type": "error"
    },
    {
      "inputs": [],
      "name": "Lottery__requestNotFound",
      "type": "error"
    },
    {
      "inputs": [
        {
          "internalType": "address",
          "name": "have",
          "type": "address"
        },
        {
          "internalType": "address",
          "name": "want",
          "type": "address"
        }
      ],
      "name": "OnlyCoordinatorCanFulfill",
      "type": "error"
    },
    {
      "anonymous": false,
      "inputs": [
        {
          "indexed": true,
          "internalType": "address",
          "name": "from",
          "type": "address"
        },
        {
          "indexed": true,
          "internalType": "address",
          "name": "to",
          "type": "address"
        }
      ],
      "name": "OwnershipTransferRequested",
      "type": "event"
    },
    {
      "anonymous": false,
      "inputs": [
        {
          "indexed": true,
          "internalType": "address",
          "name": "from",
          "type": "address"
        },
        {
          "indexed": true,
          "internalType": "address",
          "name": "to",
          "type": "address"
        }
      ],
      "name": "OwnershipTransferred",
      "type": "event"
    },
    {
      "anonymous": false,
      "inputs": [
        {
          "indexed": false,
          "internalType": "uint256",
          "name": "requestId",
          "type": "uint256"
        },
        {
          "indexed": false,
          "internalType": "uint256[]",
          "name": "randomWords",
          "type": "uint256[]"
        }
      ],
      "name": "RequestFulfiled",
      "type": "event"
    },
    {
      "anonymous": false,
      "inputs": [
        {
          "indexed": false,
          "internalType": "uint256",
          "name": "requestId",
          "type": "uint256"
        },
        {
          "indexed": false,
          "internalType": "uint32",
          "name": "numWords",
          "type": "uint32"
        }
      ],
      "name": "RequestSent",
      "type": "event"
    },
    {
      "anonymous": false,
      "inputs": [
        {
          "indexed": false,
          "internalType": "address",
          "name": "",
          "type": "address"
        }
      ],
      "name": "winnerPicked",
      "type": "event"
    },
    {
      "inputs": [],
      "name": "acceptOwnership",
      "outputs": [],
      "stateMutability": "nonpayable",
      "type": "function"
    },
    {
      "inputs": [
        {
          "internalType": "address",
          "name": "_address",
          "type": "address"
        }
      ],
      "name": "addressFund",
      "outputs": [
        {
          "internalType": "uint256",
          "name": "",
          "type": "uint256"
        }
      ],
      "stateMutability": "view",
      "type": "function"
    },
    {
      "inputs": [
        {
          "internalType": "bytes",
          "name": "",
          "type": "bytes"
        }
      ],
      "name": "checkUpkeep",
      "outputs": [
        {
          "internalType": "bool",
          "name": "upkeepNeeded",
          "type": "bool"
        },
        {
          "internalType": "bytes",
          "name": "",
          "type": "bytes"
        }
      ],
      "stateMutability": "nonpayable",
      "type": "function"
    },
    {
      "inputs": [],
      "name": "enterLottery",
      "outputs": [],
      "stateMutability": "payable",
      "type": "function"
    },
    {
      "inputs": [],
      "name": "getRaffleState",
      "outputs": [
        {
          "internalType": "enum Lottery.Status",
          "name": "",
          "type": "uint8"
        }
      ],
      "stateMutability": "view",
      "type": "function"
    },
    {
      "inputs": [],
      "name": "getRecentWinner",
      "outputs": [
        {
          "internalType": "address",
          "name": "",
          "type": "address"
        }
      ],
      "stateMutability": "view",
      "type": "function"
    },
    {
      "inputs": [],
      "name": "i_interval",
      "outputs": [
        {
          "internalType": "uint256",
          "name": "",
          "type": "uint256"
        }
      ],
      "stateMutability": "view",
      "type": "function"
    },
    {
      "inputs": [],
      "name": "lastTimestamp",
      "outputs": [
        {
          "internalType": "uint256",
          "name": "",
          "type": "uint256"
        }
      ],
      "stateMutability": "view",
      "type": "function"
    },
    {
      "inputs": [],
      "name": "numberOfParticipants",
      "outputs": [
        {
          "internalType": "uint256",
          "name": "",
          "type": "uint256"
        }
      ],
      "stateMutability": "view",
      "type": "function"
    },
    {
      "inputs": [],
      "name": "owner",
      "outputs": [
        {
          "internalType": "address",
          "name": "",
          "type": "address"
        }
      ],
      "stateMutability": "view",
      "type": "function"
    },
    {
      "inputs": [
        {
          "internalType": "bytes",
          "name": "",
          "type": "bytes"
        }
      ],
      "name": "performUpkeep",
      "outputs": [],
      "stateMutability": "nonpayable",
      "type": "function"
    },
    {
      "inputs": [
        {
          "internalType": "uint256",
          "name": "requestId",
          "type": "uint256"
        },
        {
          "internalType": "uint256[]",
          "name": "randomWords",
          "type": "uint256[]"
        }
      ],
      "name": "rawFulfillRandomWords",
      "outputs": [],
      "stateMutability": "nonpayable",
      "type": "function"
    },
    {
      "inputs": [],
      "name": "s_owner",
      "outputs": [
        {
          "internalType": "address",
          "name": "",
          "type": "address"
        }
      ],
      "stateMutability": "view",
      "type": "function"
    },
    {
      "inputs": [
        {
          "internalType": "address",
          "name": "to",
          "type": "address"
        }
      ],
      "name": "transferOwnership",
      "outputs": [],
      "stateMutability": "nonpayable",
      "type": "function"
    }
  ],
  "transactionHash": "0xd9007efcef84599a112f48eedd26f5e566e868f4b6cc9f03f482ff90373a5b8f",
  "args": [
    "0x8103b0a8a00be2ddc778e6e7eaa21791cd364625",
    "1000000000000000",
    2354,
    "0x474e34a077df58807dbe9c96d3c009b23b3c6d0cce433e59bbf5b34f823bc56c",
    100000,
    3,
    2,
    30
  ],
  "numDeployments": 3,
  "solcInputHash": "299d2a9fc87c4495b625f63daf16d082",
  "bytecode": "0x60e06040523480156200001157600080fd5b50604051620020b4380380620020b4833981810160405281019062000037919062000577565b338060008a8073ffffffffffffffffffffffffffffffffffffffff1660808173ffffffffffffffffffffffffffffffffffffffff168152505050600073ffffffffffffffffffffffffffffffffffffffff168273ffffffffffffffffffffffffffffffffffffffff1603620000e3576040517f08c379a0000000000000000000000000000000000000000000000000000000008152600401620000da90620006a1565b60405180910390fd5b816000806101000a81548173ffffffffffffffffffffffffffffffffffffffff021916908373ffffffffffffffffffffffffffffffffffffffff160217905550600073ffffffffffffffffffffffffffffffffffffffff168173ffffffffffffffffffffffffffffffffffffffff16146200016a576200016981620002a360201b60201c565b5b50505033600960006101000a81548173ffffffffffffffffffffffffffffffffffffffff021916908373ffffffffffffffffffffffffffffffffffffffff1602179055508060c08181525050426008819055508660a0818152505085600560146101000a81548167ffffffffffffffff021916908367ffffffffffffffff1602179055508460068190555083600760006101000a81548163ffffffff021916908363ffffffff16021790555082600760046101000a81548161ffff021916908361ffff16021790555081600760066101000a81548163ffffffff021916908363ffffffff16021790555087600260006101000a81548173ffffffffffffffffffffffffffffffffffffffff021916908373ffffffffffffffffffffffffffffffffffffffff160217905550505050505050505062000735565b3373ffffffffffffffffffffffffffffffffffffffff168173ffffffffffffffffffffffffffffffffffffffff160362000314576040517f08c379a00000000000000000000000000000000000000000000000000000000081526004016200030b9062000713565b60405180910390fd5b80600160006101000a81548173ffffffffffffffffffffffffffffffffffffffff021916908373ffffffffffffffffffffffffffffffffffffffff1602179055508073ffffffffffffffffffffffffffffffffffffffff1660008054906101000a900473ffffffffffffffffffffffffffffffffffffffff1673ffffffffffffffffffffffffffffffffffffffff167fed8889f560326eb138920d842192f0eb3dd22b4f139c87a2c57538e05bae127860405160405180910390a350565b600080fd5b600073ffffffffffffffffffffffffffffffffffffffff82169050919050565b60006200040482620003d7565b9050919050565b6200041681620003f7565b81146200042257600080fd5b50565b60008151905062000436816200040b565b92915050565b6000819050919050565b62000451816200043c565b81146200045d57600080fd5b50565b600081519050620004718162000446565b92915050565b600067ffffffffffffffff82169050919050565b620004968162000477565b8114620004a257600080fd5b50565b600081519050620004b6816200048b565b92915050565b6000819050919050565b620004d181620004bc565b8114620004dd57600080fd5b50565b600081519050620004f181620004c6565b92915050565b600063ffffffff82169050919050565b6200051281620004f7565b81146200051e57600080fd5b50565b600081519050620005328162000507565b92915050565b600061ffff82169050919050565b620005518162000538565b81146200055d57600080fd5b50565b600081519050620005718162000546565b92915050565b600080600080600080600080610100898b0312156200059b576200059a620003d2565b5b6000620005ab8b828c0162000425565b9850506020620005be8b828c0162000460565b9750506040620005d18b828c01620004a5565b9650506060620005e48b828c01620004e0565b9550506080620005f78b828c0162000521565b94505060a06200060a8b828c0162000560565b93505060c06200061d8b828c0162000521565b92505060e0620006308b828c0162000460565b9150509295985092959890939650565b600082825260208201905092915050565b7f43616e6e6f7420736574206f776e657220746f207a65726f0000000000000000600082015250565b60006200068960188362000640565b9150620006968262000651565b602082019050919050565b60006020820190508181036000830152620006bc816200067a565b9050919050565b7f43616e6e6f74207472616e7366657220746f2073656c66000000000000000000600082015250565b6000620006fb60178362000640565b91506200070882620006c3565b602082019050919050565b600060208201905081810360008301526200072e81620006ec565b9050919050565b60805160a05160c05161193a6200077a60003960008181610472015281816105d301526105ff015260006108b80152600081816103450152610399015261193a6000f3fe6080604052600436106100dd5760003560e01c80637417040e1161007f578063c1af578511610059578063c1af57851461028b578063e152517f14610295578063e3978240146102d2578063f2fde38b146102fd576100dd565b80637417040e1461021e57806379ba5097146102495780638da5cb5b14610260576100dd565b80634585e33b116100bb5780634585e33b14610161578063473f1ddc1461018a5780636919207d146101b55780636e04ff0d146101e0576100dd565b8063115cbaf5146100e257806319d8ac611461010d5780631fe543e314610138575b600080fd5b3480156100ee57600080fd5b506100f7610326565b604051610104919061105c565b60405180910390f35b34801561011957600080fd5b5061012261033d565b60405161012f9190611090565b60405180910390f35b34801561014457600080fd5b5061015f600480360381019061015a9190611244565b610343565b005b34801561016d57600080fd5b50610188600480360381019061018391906112fb565b610403565b005b34801561019657600080fd5b5061019f6105a7565b6040516101ac9190611389565b60405180910390f35b3480156101c157600080fd5b506101ca6105d1565b6040516101d79190611090565b60405180910390f35b3480156101ec57600080fd5b50610207600480360381019061020291906112fb565b6105f5565b60405161021592919061143e565b60405180910390f35b34801561022a57600080fd5b5061023361067e565b6040516102409190611090565b60405180910390f35b34801561025557600080fd5b5061025e61068b565b005b34801561026c57600080fd5b50610275610820565b6040516102829190611389565b60405180910390f35b610293610849565b005b3480156102a157600080fd5b506102bc60048036038101906102b7919061149a565b610a5c565b6040516102c99190611090565b60405180910390f35b3480156102de57600080fd5b506102e7610aa5565b6040516102f49190611389565b60405180910390f35b34801561030957600080fd5b50610324600480360381019061031f919061149a565b610acb565b005b6000600960149054906101000a900460ff16905090565b60085481565b7f000000000000000000000000000000000000000000000000000000000000000073ffffffffffffffffffffffffffffffffffffffff163373ffffffffffffffffffffffffffffffffffffffff16146103f557337f00000000000000000000000000000000000000000000000000000000000000006040517f1cf993f40000000000000000000000000000000000000000000000000000000081526004016103ec9291906114c7565b60405180910390fd5b6103ff8282610adf565b5050565b60018081111561041657610415610fe5565b5b600960149054906101000a900460ff16600181111561043857610437610fe5565b5b0361046f576040517fff98124b00000000000000000000000000000000000000000000000000000000815260040160405180910390fd5b427f000000000000000000000000000000000000000000000000000000000000000060085461049e919061151f565b11156104ac57426008819055505b6000600260009054906101000a900473ffffffffffffffffffffffffffffffffffffffff1673ffffffffffffffffffffffffffffffffffffffff16635d3b1d30600654600560149054906101000a900467ffffffffffffffff16600760049054906101000a900461ffff16600760009054906101000a900463ffffffff16600760069054906101000a900463ffffffff166040518663ffffffff1660e01b815260040161055d9594939291906115cb565b6020604051808303816000875af115801561057c573d6000803e3d6000fd5b505050506040513d601f19601f820116820180604052508101906105a09190611633565b9050505050565b6000600560009054906101000a900473ffffffffffffffffffffffffffffffffffffffff16905090565b7f000000000000000000000000000000000000000000000000000000000000000081565b60006060600091507f000000000000000000000000000000000000000000000000000000000000000060085461062b919061151f565b42111561066257600191506001600960146101000a81548160ff0219169083600181111561065c5761065b610fe5565b5b02179055505b8160405180602001604052806000815250915091509250929050565b6000600380549050905090565b600160009054906101000a900473ffffffffffffffffffffffffffffffffffffffff1673ffffffffffffffffffffffffffffffffffffffff163373ffffffffffffffffffffffffffffffffffffffff161461071b576040517f08c379a0000000000000000000000000000000000000000000000000000000008152600401610712906116bd565b60405180910390fd5b60008060009054906101000a900473ffffffffffffffffffffffffffffffffffffffff169050336000806101000a81548173ffffffffffffffffffffffffffffffffffffffff021916908373ffffffffffffffffffffffffffffffffffffffff1602179055506000600160006101000a81548173ffffffffffffffffffffffffffffffffffffffff021916908373ffffffffffffffffffffffffffffffffffffffff1602179055503373ffffffffffffffffffffffffffffffffffffffff168173ffffffffffffffffffffffffffffffffffffffff167f8be0079c531659141344cd1fd0a4f28419497f9722a3daafe3b4186f6b6457e060405160405180910390a350565b60008060009054906101000a900473ffffffffffffffffffffffffffffffffffffffff16905090565b6000600181111561085d5761085c610fe5565b5b600960149054906101000a900460ff16600181111561087f5761087e610fe5565b5b146108b6576040517fff98124b00000000000000000000000000000000000000000000000000000000815260040160405180910390fd5b7f0000000000000000000000000000000000000000000000000000000000000000341015610910576040517f8687705700000000000000000000000000000000000000000000000000000000815260040160405180910390fd5b6000600460003373ffffffffffffffffffffffffffffffffffffffff1673ffffffffffffffffffffffffffffffffffffffff16815260200190815260200160002054146109b25734600460003373ffffffffffffffffffffffffffffffffffffffff1673ffffffffffffffffffffffffffffffffffffffff16815260200190815260200160002060008282546109a6919061151f565b92505081905550610a5a565b34600460003373ffffffffffffffffffffffffffffffffffffffff1673ffffffffffffffffffffffffffffffffffffffff168152602001908152602001600020819055506003339080600181540180825580915050600190039060005260206000200160009091909190916101000a81548173ffffffffffffffffffffffffffffffffffffffff021916908373ffffffffffffffffffffffffffffffffffffffff1602179055505b565b6000600460008373ffffffffffffffffffffffffffffffffffffffff1673ffffffffffffffffffffffffffffffffffffffff168152602001908152602001600020549050919050565b600960009054906101000a900473ffffffffffffffffffffffffffffffffffffffff1681565b610ad3610d82565b610adc81610e12565b50565b600081600081518110610af557610af46116dd565b5b60200260200101519050600060038054905082610b12919061173b565b9050600060038281548110610b2a57610b296116dd565b5b9060005260206000200160009054906101000a900473ffffffffffffffffffffffffffffffffffffffff1673ffffffffffffffffffffffffffffffffffffffff1647604051610b789061179d565b60006040518083038185875af1925050503d8060008114610bb5576040519150601f19603f3d011682016040523d82523d6000602084013e610bba565b606091505b5050905080610bf5576040517f3b07623d00000000000000000000000000000000000000000000000000000000815260040160405180910390fd5b7f794919b0f484b8e90b1b817ac7f880f846fbd8a9813dee2a378e820db094e3d160038381548110610c2a57610c296116dd565b5b9060005260206000200160009054906101000a900473ffffffffffffffffffffffffffffffffffffffff16604051610c629190611811565b60405180910390a16000600960146101000a81548160ff02191690836001811115610c9057610c8f610fe5565b5b02179055504260088190555060038281548110610cb057610caf6116dd565b5b9060005260206000200160009054906101000a900473ffffffffffffffffffffffffffffffffffffffff16600560006101000a81548173ffffffffffffffffffffffffffffffffffffffff021916908373ffffffffffffffffffffffffffffffffffffffff160217905550600067ffffffffffffffff811115610d3657610d35611101565b5b604051908082528060200260200182016040528015610d645781602001602082028036833780820191505090505b5060039080519060200190610d7a929190610f3e565b505050505050565b60008054906101000a900473ffffffffffffffffffffffffffffffffffffffff1673ffffffffffffffffffffffffffffffffffffffff163373ffffffffffffffffffffffffffffffffffffffff1614610e10576040517f08c379a0000000000000000000000000000000000000000000000000000000008152600401610e0790611878565b60405180910390fd5b565b3373ffffffffffffffffffffffffffffffffffffffff168173ffffffffffffffffffffffffffffffffffffffff1603610e80576040517f08c379a0000000000000000000000000000000000000000000000000000000008152600401610e77906118e4565b60405180910390fd5b80600160006101000a81548173ffffffffffffffffffffffffffffffffffffffff021916908373ffffffffffffffffffffffffffffffffffffffff1602179055508073ffffffffffffffffffffffffffffffffffffffff1660008054906101000a900473ffffffffffffffffffffffffffffffffffffffff1673ffffffffffffffffffffffffffffffffffffffff167fed8889f560326eb138920d842192f0eb3dd22b4f139c87a2c57538e05bae127860405160405180910390a350565b828054828255906000526020600020908101928215610fb7579160200282015b82811115610fb65782518260006101000a81548173ffffffffffffffffffffffffffffffffffffffff021916908373ffffffffffffffffffffffffffffffffffffffff16021790555091602001919060010190610f5e565b5b509050610fc49190610fc8565b5090565b5b80821115610fe1576000816000905550600101610fc9565b5090565b7f4e487b7100000000000000000000000000000000000000000000000000000000600052602160045260246000fd5b6002811061102557611024610fe5565b5b50565b600081905061103682611014565b919050565b600061104682611028565b9050919050565b6110568161103b565b82525050565b6000602082019050611071600083018461104d565b92915050565b6000819050919050565b61108a81611077565b82525050565b60006020820190506110a56000830184611081565b92915050565b6000604051905090565b600080fd5b600080fd5b6110c881611077565b81146110d357600080fd5b50565b6000813590506110e5816110bf565b92915050565b600080fd5b6000601f19601f8301169050919050565b7f4e487b7100000000000000000000000000000000000000000000000000000000600052604160045260246000fd5b611139826110f0565b810181811067ffffffffffffffff8211171561115857611157611101565b5b80604052505050565b600061116b6110ab565b90506111778282611130565b919050565b600067ffffffffffffffff82111561119757611196611101565b5b602082029050602081019050919050565b600080fd5b60006111c06111bb8461117c565b611161565b905080838252602082019050602084028301858111156111e3576111e26111a8565b5b835b8181101561120c57806111f888826110d6565b8452602084019350506020810190506111e5565b5050509392505050565b600082601f83011261122b5761122a6110eb565b5b813561123b8482602086016111ad565b91505092915050565b6000806040838503121561125b5761125a6110b5565b5b6000611269858286016110d6565b925050602083013567ffffffffffffffff81111561128a576112896110ba565b5b61129685828601611216565b9150509250929050565b600080fd5b60008083601f8401126112bb576112ba6110eb565b5b8235905067ffffffffffffffff8111156112d8576112d76112a0565b5b6020830191508360018202830111156112f4576112f36111a8565b5b9250929050565b60008060208385031215611312576113116110b5565b5b600083013567ffffffffffffffff8111156113305761132f6110ba565b5b61133c858286016112a5565b92509250509250929050565b600073ffffffffffffffffffffffffffffffffffffffff82169050919050565b600061137382611348565b9050919050565b61138381611368565b82525050565b600060208201905061139e600083018461137a565b92915050565b60008115159050919050565b6113b9816113a4565b82525050565b600081519050919050565b600082825260208201905092915050565b60005b838110156113f95780820151818401526020810190506113de565b60008484015250505050565b6000611410826113bf565b61141a81856113ca565b935061142a8185602086016113db565b611433816110f0565b840191505092915050565b600060408201905061145360008301856113b0565b81810360208301526114658184611405565b90509392505050565b61147781611368565b811461148257600080fd5b50565b6000813590506114948161146e565b92915050565b6000602082840312156114b0576114af6110b5565b5b60006114be84828501611485565b91505092915050565b60006040820190506114dc600083018561137a565b6114e9602083018461137a565b9392505050565b7f4e487b7100000000000000000000000000000000000000000000000000000000600052601160045260246000fd5b600061152a82611077565b915061153583611077565b925082820190508082111561154d5761154c6114f0565b5b92915050565b6000819050919050565b61156681611553565b82525050565b600067ffffffffffffffff82169050919050565b6115898161156c565b82525050565b600061ffff82169050919050565b6115a68161158f565b82525050565b600063ffffffff82169050919050565b6115c5816115ac565b82525050565b600060a0820190506115e0600083018861155d565b6115ed6020830187611580565b6115fa604083018661159d565b61160760608301856115bc565b61161460808301846115bc565b9695505050505050565b60008151905061162d816110bf565b92915050565b600060208284031215611649576116486110b5565b5b60006116578482850161161e565b91505092915050565b600082825260208201905092915050565b7f4d7573742062652070726f706f736564206f776e657200000000000000000000600082015250565b60006116a7601683611660565b91506116b282611671565b602082019050919050565b600060208201905081810360008301526116d68161169a565b9050919050565b7f4e487b7100000000000000000000000000000000000000000000000000000000600052603260045260246000fd5b7f4e487b7100000000000000000000000000000000000000000000000000000000600052601260045260246000fd5b600061174682611077565b915061175183611077565b9250826117615761176061170c565b5b828206905092915050565b600081905092915050565b50565b600061178760008361176c565b915061179282611777565b600082019050919050565b60006117a88261177a565b9150819050919050565b6000819050919050565b60006117d76117d26117cd84611348565b6117b2565b611348565b9050919050565b60006117e9826117bc565b9050919050565b60006117fb826117de565b9050919050565b61180b816117f0565b82525050565b60006020820190506118266000830184611802565b92915050565b7f4f6e6c792063616c6c61626c65206279206f776e657200000000000000000000600082015250565b6000611862601683611660565b915061186d8261182c565b602082019050919050565b6000602082019050818103600083015261189181611855565b9050919050565b7f43616e6e6f74207472616e7366657220746f2073656c66000000000000000000600082015250565b60006118ce601783611660565b91506118d982611898565b602082019050919050565b600060208201905081810360008301526118fd816118c1565b905091905056fea2646970667358221220180b10a48d0d22a9f756c604d93ae1120c54de014090f2ab48727b5674def23d64736f6c63430008130033",
  "devdoc": {
    "author": "Ogar Segun",
    "details": "This implements ChaninlinkVRF and Chainlink automation",
    "kind": "dev",
    "methods": {},
    "title": "A simple lottery project",
    "version": 1
  },
  "userdoc": {
    "kind": "user",
    "methods": {
      "acceptOwnership()": {
        "notice": "Allows an ownership transfer to be completed by the recipient."
      },
      "owner()": {
        "notice": "Get the current owner"
      },
      "transferOwnership(address)": {
        "notice": "Allows an owner to begin transferring ownership to a new address, pending."
      }
    },
    "version": 1
  },
  "storageLayout": {
    "storage": [
      {
        "astId": 66,
        "contract": "contracts/Lottery.sol:Lottery",
        "label": "s_owner",
        "offset": 0,
        "slot": "0",
        "type": "t_address"
      },
      {
        "astId": 68,
        "contract": "contracts/Lottery.sol:Lottery",
        "label": "s_pendingOwner",
        "offset": 0,
        "slot": "1",
        "type": "t_address"
      },
      {
        "astId": 426,
        "contract": "contracts/Lottery.sol:Lottery",
        "label": "COORDINATOR",
        "offset": 0,
        "slot": "2",
        "type": "t_contract(VRFCoordinatorV2Interface)409"
      },
      {
        "astId": 442,
        "contract": "contracts/Lottery.sol:Lottery",
        "label": "s_participantArray",
        "offset": 0,
        "slot": "3",
        "type": "t_array(t_address_payable)dyn_storage"
      },
      {
        "astId": 448,
        "contract": "contracts/Lottery.sol:Lottery",
        "label": "s_mappingParticipant",
        "offset": 0,
        "slot": "4",
        "type": "t_mapping(t_address,t_uint256)"
      },
      {
        "astId": 450,
        "contract": "contracts/Lottery.sol:Lottery",
        "label": "s_recentWinner",
        "offset": 0,
        "slot": "5",
        "type": "t_address"
      },
      {
        "astId": 452,
        "contract": "contracts/Lottery.sol:Lottery",
        "label": "s_subscriptionId",
        "offset": 20,
        "slot": "5",
        "type": "t_uint64"
      },
      {
        "astId": 454,
        "contract": "contracts/Lottery.sol:Lottery",
        "label": "keyHash",
        "offset": 0,
        "slot": "6",
        "type": "t_bytes32"
      },
      {
        "astId": 456,
        "contract": "contracts/Lottery.sol:Lottery",
        "label": "callbackGasLimit",
        "offset": 0,
        "slot": "7",
        "type": "t_uint32"
      },
      {
        "astId": 458,
        "contract": "contracts/Lottery.sol:Lottery",
        "label": "requestConfirmations",
        "offset": 4,
        "slot": "7",
        "type": "t_uint16"
      },
      {
        "astId": 460,
        "contract": "contracts/Lottery.sol:Lottery",
        "label": "numWords",
        "offset": 6,
        "slot": "7",
        "type": "t_uint32"
      },
      {
        "astId": 462,
        "contract": "contracts/Lottery.sol:Lottery",
        "label": "lastTimestamp",
        "offset": 0,
        "slot": "8",
        "type": "t_uint256"
      },
      {
        "astId": 464,
        "contract": "contracts/Lottery.sol:Lottery",
        "label": "s_owner",
        "offset": 0,
        "slot": "9",
        "type": "t_address"
      },
      {
        "astId": 467,
        "contract": "contracts/Lottery.sol:Lottery",
        "label": "status",
        "offset": 20,
        "slot": "9",
        "type": "t_enum(Status)437"
      }
    ],
    "types": {
      "t_address": {
        "encoding": "inplace",
        "label": "address",
        "numberOfBytes": "20"
      },
      "t_address_payable": {
        "encoding": "inplace",
        "label": "address payable",
        "numberOfBytes": "20"
      },
      "t_array(t_address_payable)dyn_storage": {
        "base": "t_address_payable",
        "encoding": "dynamic_array",
        "label": "address payable[]",
        "numberOfBytes": "32"
      },
      "t_bytes32": {
        "encoding": "inplace",
        "label": "bytes32",
        "numberOfBytes": "32"
      },
      "t_contract(VRFCoordinatorV2Interface)409": {
        "encoding": "inplace",
        "label": "contract VRFCoordinatorV2Interface",
        "numberOfBytes": "20"
      },
      "t_enum(Status)437": {
        "encoding": "inplace",
        "label": "enum Lottery.Status",
        "numberOfBytes": "1"
      },
      "t_mapping(t_address,t_uint256)": {
        "encoding": "mapping",
        "key": "t_address",
        "label": "mapping(address => uint256)",
        "numberOfBytes": "32",
        "value": "t_uint256"
      },
      "t_uint16": {
        "encoding": "inplace",
        "label": "uint16",
        "numberOfBytes": "2"
      },
      "t_uint256": {
        "encoding": "inplace",
        "label": "uint256",
        "numberOfBytes": "32"
      },
      "t_uint32": {
        "encoding": "inplace",
        "label": "uint32",
        "numberOfBytes": "4"
      },
      "t_uint64": {
        "encoding": "inplace",
        "label": "uint64",
        "numberOfBytes": "8"
      }
    }
  }
}