{
  "address": "0x73799Da6dC15fB1bE5D0fe3426027F8b9010c1E9",
  "abi": [
    {
      "inputs": [
        {
          "internalType": "address",
          "name": "_coordinator",
          "type": "address"
        },
        {
          "internalType": "uint256",
          "name": "_minimumFee",
          "type": "uint256"
        },
        {
          "internalType": "uint64",
          "name": "subscriptionId",
          "type": "uint64"
        },
        {
          "internalType": "bytes32",
          "name": "_keyHash",
          "type": "bytes32"
        },
        {
          "internalType": "uint32",
          "name": "_callbackGasLimit",
          "type": "uint32"
        },
        {
          "internalType": "uint16",
          "name": "_requestConfirmations",
          "type": "uint16"
        },
        {
          "internalType": "uint32",
          "name": "_numWords",
          "type": "uint32"
        },
        {
          "internalType": "uint256",
          "name": "updatei_interval",
          "type": "uint256"
        }
      ],
      "stateMutability": "nonpayable",
      "type": "constructor"
    },
    {
      "inputs": [],
      "name": "Lottery__balanceNotSent",
      "type": "error"
    },
    {
      "inputs": [],
      "name": "Lottery__ethNotEnough",
      "type": "error"
    },
    {
      "inputs": [],
      "name": "Lottery__failedWinnerTransfer",
      "type": "error"
    },
    {
      "inputs": [],
      "name": "Lottery__raffleClosed",
      "type": "error"
    },
    {
      "inputs": [],
      "name": "Lottery__requestNotFound",
      "type": "error"
    },
    {
      "inputs": [],
      "name": "Lottery__upkeepNotNeeded",
      "type": "error"
    },
    {
      "inputs": [
        {
          "internalType": "address",
          "name": "have",
          "type": "address"
        },
        {
          "internalType": "address",
          "name": "want",
          "type": "address"
        }
      ],
      "name": "OnlyCoordinatorCanFulfill",
      "type": "error"
    },
    {
      "anonymous": false,
      "inputs": [
        {
          "indexed": true,
          "internalType": "address",
          "name": "from",
          "type": "address"
        },
        {
          "indexed": true,
          "internalType": "address",
          "name": "to",
          "type": "address"
        }
      ],
      "name": "OwnershipTransferRequested",
      "type": "event"
    },
    {
      "anonymous": false,
      "inputs": [
        {
          "indexed": true,
          "internalType": "address",
          "name": "from",
          "type": "address"
        },
        {
          "indexed": true,
          "internalType": "address",
          "name": "to",
          "type": "address"
        }
      ],
      "name": "OwnershipTransferred",
      "type": "event"
    },
    {
      "anonymous": false,
      "inputs": [
        {
          "indexed": false,
          "internalType": "uint256",
          "name": "requestId",
          "type": "uint256"
        },
        {
          "indexed": false,
          "internalType": "uint256[]",
          "name": "randomWords",
          "type": "uint256[]"
        }
      ],
      "name": "RequestFulfiled",
      "type": "event"
    },
    {
      "anonymous": false,
      "inputs": [
        {
          "indexed": false,
          "internalType": "uint256",
          "name": "requestId",
          "type": "uint256"
        },
        {
          "indexed": false,
          "internalType": "uint32",
          "name": "numWords",
          "type": "uint32"
        }
      ],
      "name": "RequestSent",
      "type": "event"
    },
    {
      "anonymous": false,
      "inputs": [
        {
          "indexed": false,
          "internalType": "address",
          "name": "",
          "type": "address"
        }
      ],
      "name": "winnerPicked",
      "type": "event"
    },
    {
      "inputs": [],
      "name": "acceptOwnership",
      "outputs": [],
      "stateMutability": "nonpayable",
      "type": "function"
    },
    {
      "inputs": [
        {
          "internalType": "address",
          "name": "_address",
          "type": "address"
        }
      ],
      "name": "addressFund",
      "outputs": [
        {
          "internalType": "uint256",
          "name": "",
          "type": "uint256"
        }
      ],
      "stateMutability": "view",
      "type": "function"
    },
    {
      "inputs": [
        {
          "internalType": "bytes",
          "name": "",
          "type": "bytes"
        }
      ],
      "name": "checkUpkeep",
      "outputs": [
        {
          "internalType": "bool",
          "name": "upkeepNeeded",
          "type": "bool"
        },
        {
          "internalType": "bytes",
          "name": "",
          "type": "bytes"
        }
      ],
      "stateMutability": "nonpayable",
      "type": "function"
    },
    {
      "inputs": [],
      "name": "enterLottery",
      "outputs": [],
      "stateMutability": "payable",
      "type": "function"
    },
    {
      "inputs": [
        {
          "internalType": "uint256",
          "name": "_index",
          "type": "uint256"
        }
      ],
      "name": "getAddressOfIndex",
      "outputs": [
        {
          "internalType": "address",
          "name": "",
          "type": "address"
        }
      ],
      "stateMutability": "view",
      "type": "function"
    },
    {
      "inputs": [],
      "name": "getEntranceFee",
      "outputs": [
        {
          "internalType": "uint256",
          "name": "",
          "type": "uint256"
        }
      ],
      "stateMutability": "view",
      "type": "function"
    },
    {
      "inputs": [],
      "name": "getInterval",
      "outputs": [
        {
          "internalType": "uint256",
          "name": "",
          "type": "uint256"
        }
      ],
      "stateMutability": "view",
      "type": "function"
    },
    {
      "inputs": [],
      "name": "getLastTimestamp",
      "outputs": [
        {
          "internalType": "uint256",
          "name": "",
          "type": "uint256"
        }
      ],
      "stateMutability": "view",
      "type": "function"
    },
    {
      "inputs": [],
      "name": "getRaffleState",
      "outputs": [
        {
          "internalType": "enum Lottery.Status",
          "name": "",
          "type": "uint8"
        }
      ],
      "stateMutability": "view",
      "type": "function"
    },
    {
      "inputs": [],
      "name": "getRecentWinner",
      "outputs": [
        {
          "internalType": "address",
          "name": "",
          "type": "address"
        }
      ],
      "stateMutability": "view",
      "type": "function"
    },
    {
      "inputs": [],
      "name": "i_interval",
      "outputs": [
        {
          "internalType": "uint256",
          "name": "",
          "type": "uint256"
        }
      ],
      "stateMutability": "view",
      "type": "function"
    },
    {
      "inputs": [],
      "name": "lastTimestamp",
      "outputs": [
        {
          "internalType": "uint256",
          "name": "",
          "type": "uint256"
        }
      ],
      "stateMutability": "view",
      "type": "function"
    },
    {
      "inputs": [],
      "name": "numberOfParticipants",
      "outputs": [
        {
          "internalType": "uint256",
          "name": "",
          "type": "uint256"
        }
      ],
      "stateMutability": "view",
      "type": "function"
    },
    {
      "inputs": [],
      "name": "owner",
      "outputs": [
        {
          "internalType": "address",
          "name": "",
          "type": "address"
        }
      ],
      "stateMutability": "view",
      "type": "function"
    },
    {
      "inputs": [
        {
          "internalType": "bytes",
          "name": "",
          "type": "bytes"
        }
      ],
      "name": "performUpkeep",
      "outputs": [],
      "stateMutability": "nonpayable",
      "type": "function"
    },
    {
      "inputs": [
        {
          "internalType": "uint256",
          "name": "requestId",
          "type": "uint256"
        },
        {
          "internalType": "uint256[]",
          "name": "randomWords",
          "type": "uint256[]"
        }
      ],
      "name": "rawFulfillRandomWords",
      "outputs": [],
      "stateMutability": "nonpayable",
      "type": "function"
    },
    {
      "inputs": [],
      "name": "s_owner",
      "outputs": [
        {
          "internalType": "address",
          "name": "",
          "type": "address"
        }
      ],
      "stateMutability": "view",
      "type": "function"
    },
    {
      "inputs": [
        {
          "internalType": "address",
          "name": "to",
          "type": "address"
        }
      ],
      "name": "transferOwnership",
      "outputs": [],
      "stateMutability": "nonpayable",
      "type": "function"
    }
  ],
  "transactionHash": "0x605c6104bf18ae56579b23890b067b6be491428f96b3976dfafd1e1832fdbaba",
  "args": [
    "0x8103b0a8a00be2ddc778e6e7eaa21791cd364625",
    "10000000000000",
    2354,
    "0x474e34a077df58807dbe9c96d3c009b23b3c6d0cce433e59bbf5b34f823bc56c",
    2500000,
    3,
    1,
    30
  ],
  "numDeployments": 8,
  "solcInputHash": "bbf5fef3af401dc331e13e37a771e822",
  "bytecode": "0x60e06040523480156200001157600080fd5b506040516200236238038062002362833981810160405281019062000037919062000577565b338060008a8073ffffffffffffffffffffffffffffffffffffffff1660808173ffffffffffffffffffffffffffffffffffffffff168152505050600073ffffffffffffffffffffffffffffffffffffffff168273ffffffffffffffffffffffffffffffffffffffff1603620000e3576040517f08c379a0000000000000000000000000000000000000000000000000000000008152600401620000da90620006a1565b60405180910390fd5b816000806101000a81548173ffffffffffffffffffffffffffffffffffffffff021916908373ffffffffffffffffffffffffffffffffffffffff160217905550600073ffffffffffffffffffffffffffffffffffffffff168173ffffffffffffffffffffffffffffffffffffffff16146200016a576200016981620002a360201b60201c565b5b50505033600960006101000a81548173ffffffffffffffffffffffffffffffffffffffff021916908373ffffffffffffffffffffffffffffffffffffffff1602179055508060c08181525050426008819055508660a0818152505085600560146101000a81548167ffffffffffffffff021916908367ffffffffffffffff1602179055508460068190555083600760006101000a81548163ffffffff021916908363ffffffff16021790555082600760046101000a81548161ffff021916908361ffff16021790555081600760066101000a81548163ffffffff021916908363ffffffff16021790555087600260006101000a81548173ffffffffffffffffffffffffffffffffffffffff021916908373ffffffffffffffffffffffffffffffffffffffff160217905550505050505050505062000735565b3373ffffffffffffffffffffffffffffffffffffffff168173ffffffffffffffffffffffffffffffffffffffff160362000314576040517f08c379a00000000000000000000000000000000000000000000000000000000081526004016200030b9062000713565b60405180910390fd5b80600160006101000a81548173ffffffffffffffffffffffffffffffffffffffff021916908373ffffffffffffffffffffffffffffffffffffffff1602179055508073ffffffffffffffffffffffffffffffffffffffff1660008054906101000a900473ffffffffffffffffffffffffffffffffffffffff1673ffffffffffffffffffffffffffffffffffffffff167fed8889f560326eb138920d842192f0eb3dd22b4f139c87a2c57538e05bae127860405160405180910390a350565b600080fd5b600073ffffffffffffffffffffffffffffffffffffffff82169050919050565b60006200040482620003d7565b9050919050565b6200041681620003f7565b81146200042257600080fd5b50565b60008151905062000436816200040b565b92915050565b6000819050919050565b62000451816200043c565b81146200045d57600080fd5b50565b600081519050620004718162000446565b92915050565b600067ffffffffffffffff82169050919050565b620004968162000477565b8114620004a257600080fd5b50565b600081519050620004b6816200048b565b92915050565b6000819050919050565b620004d181620004bc565b8114620004dd57600080fd5b50565b600081519050620004f181620004c6565b92915050565b600063ffffffff82169050919050565b6200051281620004f7565b81146200051e57600080fd5b50565b600081519050620005328162000507565b92915050565b600061ffff82169050919050565b620005518162000538565b81146200055d57600080fd5b50565b600081519050620005718162000546565b92915050565b600080600080600080600080610100898b0312156200059b576200059a620003d2565b5b6000620005ab8b828c0162000425565b9850506020620005be8b828c0162000460565b9750506040620005d18b828c01620004a5565b9650506060620005e48b828c01620004e0565b9550506080620005f78b828c0162000521565b94505060a06200060a8b828c0162000560565b93505060c06200061d8b828c0162000521565b92505060e0620006308b828c0162000460565b9150509295985092959890939650565b600082825260208201905092915050565b7f43616e6e6f7420736574206f776e657220746f207a65726f0000000000000000600082015250565b60006200068960188362000640565b9150620006968262000651565b602082019050919050565b60006020820190508181036000830152620006bc816200067a565b9050919050565b7f43616e6e6f74207472616e7366657220746f2073656c66000000000000000000600082015250565b6000620006fb60178362000640565b91506200070882620006c3565b602082019050919050565b600060208201905081810360008301526200072e81620006ec565b9050919050565b60805160a05160c051611bda62000788600039600081816105e201528181610744015281816107720152610a300152600081816104140152610ac301526000818161045701526104ab0152611bda6000f3fe6080604052600436106101095760003560e01c80637417040e1161009557806391ad27b41161006457806391ad27b41461034a578063c1af578514610375578063e152517f1461037f578063e3978240146103bc578063f2fde38b146103e757610109565b80637417040e146102a057806379ba5097146102cb57806381f8d925146102e25780638da5cb5b1461031f57610109565b806337899770116100dc57806337899770146101b85780634585e33b146101e3578063473f1ddc1461020c5780636919207d146102375780636e04ff0d1461026257610109565b806309bc33a71461010e578063115cbaf51461013957806319d8ac61146101645780631fe543e31461018f575b600080fd5b34801561011a57600080fd5b50610123610410565b60405161013091906111ed565b60405180910390f35b34801561014557600080fd5b5061014e610438565b60405161015b919061127f565b60405180910390f35b34801561017057600080fd5b5061017961044f565b60405161018691906111ed565b60405180910390f35b34801561019b57600080fd5b506101b660048036038101906101b19190611433565b610455565b005b3480156101c457600080fd5b506101cd610515565b6040516101da91906111ed565b60405180910390f35b3480156101ef57600080fd5b5061020a600480360381019061020591906114ea565b61051f565b005b34801561021857600080fd5b50610221610718565b60405161022e9190611578565b60405180910390f35b34801561024357600080fd5b5061024c610742565b60405161025991906111ed565b60405180910390f35b34801561026e57600080fd5b5061028960048036038101906102849190611648565b610766565b60405161029792919061172b565b60405180910390f35b3480156102ac57600080fd5b506102b5610819565b6040516102c291906111ed565b60405180910390f35b3480156102d757600080fd5b506102e0610826565b005b3480156102ee57600080fd5b506103096004803603810190610304919061175b565b6109bb565b6040516103169190611578565b60405180910390f35b34801561032b57600080fd5b50610334610a03565b6040516103419190611578565b60405180910390f35b34801561035657600080fd5b5061035f610a2c565b60405161036c91906111ed565b60405180910390f35b61037d610a54565b005b34801561038b57600080fd5b506103a660048036038101906103a191906117b4565b610c67565b6040516103b391906111ed565b60405180910390f35b3480156103c857600080fd5b506103d1610cb0565b6040516103de9190611578565b60405180910390f35b3480156103f357600080fd5b5061040e600480360381019061040991906117b4565b610cd6565b005b60007f0000000000000000000000000000000000000000000000000000000000000000905090565b6000600960149054906101000a900460ff16905090565b60085481565b7f000000000000000000000000000000000000000000000000000000000000000073ffffffffffffffffffffffffffffffffffffffff163373ffffffffffffffffffffffffffffffffffffffff161461050757337f00000000000000000000000000000000000000000000000000000000000000006040517f1cf993f40000000000000000000000000000000000000000000000000000000081526004016104fe9291906117e1565b60405180910390fd5b6105118282610cea565b5050565b6000600854905090565b600061053960405180602001604052806000815250610766565b50905080610573576040517f439ffba500000000000000000000000000000000000000000000000000000000815260040160405180910390fd5b60018081111561058657610585611208565b5b600960149054906101000a900460ff1660018111156105a8576105a7611208565b5b146105df576040517fff98124b00000000000000000000000000000000000000000000000000000000815260040160405180910390fd5b427f000000000000000000000000000000000000000000000000000000000000000060085461060e9190611839565b111561061c57426008819055505b6000600260009054906101000a900473ffffffffffffffffffffffffffffffffffffffff1673ffffffffffffffffffffffffffffffffffffffff16635d3b1d30600654600560149054906101000a900467ffffffffffffffff16600760049054906101000a900461ffff16600760009054906101000a900463ffffffff16600760069054906101000a900463ffffffff166040518663ffffffff1660e01b81526004016106cd9594939291906118e5565b6020604051808303816000875af11580156106ec573d6000803e3d6000fd5b505050506040513d601f19601f82011682018060405250810190610710919061194d565b905050505050565b6000600560009054906101000a900473ffffffffffffffffffffffffffffffffffffffff16905090565b7f000000000000000000000000000000000000000000000000000000000000000081565b600060606000915060007f000000000000000000000000000000000000000000000000000000000000000060085461079e9190611839565b42119050600080600380549050119050600080471190508280156107bf5750815b80156107c85750805b945084156107fc576001600960146101000a81548160ff021916908360018111156107f6576107f5611208565b5b02179055505b846040518060200160405280600081525094509450505050915091565b6000600380549050905090565b600160009054906101000a900473ffffffffffffffffffffffffffffffffffffffff1673ffffffffffffffffffffffffffffffffffffffff163373ffffffffffffffffffffffffffffffffffffffff16146108b6576040517f08c379a00000000000000000000000000000000000000000000000000000000081526004016108ad906119d7565b60405180910390fd5b60008060009054906101000a900473ffffffffffffffffffffffffffffffffffffffff169050336000806101000a81548173ffffffffffffffffffffffffffffffffffffffff021916908373ffffffffffffffffffffffffffffffffffffffff1602179055506000600160006101000a81548173ffffffffffffffffffffffffffffffffffffffff021916908373ffffffffffffffffffffffffffffffffffffffff1602179055503373ffffffffffffffffffffffffffffffffffffffff168173ffffffffffffffffffffffffffffffffffffffff167f8be0079c531659141344cd1fd0a4f28419497f9722a3daafe3b4186f6b6457e060405160405180910390a350565b6000600382815481106109d1576109d06119f7565b5b9060005260206000200160009054906101000a900473ffffffffffffffffffffffffffffffffffffffff169050919050565b60008060009054906101000a900473ffffffffffffffffffffffffffffffffffffffff16905090565b60007f0000000000000000000000000000000000000000000000000000000000000000905090565b60006001811115610a6857610a67611208565b5b600960149054906101000a900460ff166001811115610a8a57610a89611208565b5b14610ac1576040517fff98124b00000000000000000000000000000000000000000000000000000000815260040160405180910390fd5b7f0000000000000000000000000000000000000000000000000000000000000000341015610b1b576040517f8687705700000000000000000000000000000000000000000000000000000000815260040160405180910390fd5b6000600460003373ffffffffffffffffffffffffffffffffffffffff1673ffffffffffffffffffffffffffffffffffffffff1681526020019081526020016000205414610bbd5734600460003373ffffffffffffffffffffffffffffffffffffffff1673ffffffffffffffffffffffffffffffffffffffff1681526020019081526020016000206000828254610bb19190611839565b92505081905550610c65565b34600460003373ffffffffffffffffffffffffffffffffffffffff1673ffffffffffffffffffffffffffffffffffffffff168152602001908152602001600020819055506003339080600181540180825580915050600190039060005260206000200160009091909190916101000a81548173ffffffffffffffffffffffffffffffffffffffff021916908373ffffffffffffffffffffffffffffffffffffffff1602179055505b565b6000600460008373ffffffffffffffffffffffffffffffffffffffff1673ffffffffffffffffffffffffffffffffffffffff168152602001908152602001600020549050919050565b600960009054906101000a900473ffffffffffffffffffffffffffffffffffffffff1681565b610cde610f71565b610ce781611001565b50565b600081600081518110610d0057610cff6119f7565b5b60200260200101519050600060038054905082610d1d9190611a55565b90506000600960146101000a81548160ff02191690836001811115610d4557610d44611208565b5b02179055504260088190555060038181548110610d6557610d646119f7565b5b9060005260206000200160009054906101000a900473ffffffffffffffffffffffffffffffffffffffff16600560006101000a81548173ffffffffffffffffffffffffffffffffffffffff021916908373ffffffffffffffffffffffffffffffffffffffff160217905550600067ffffffffffffffff811115610deb57610dea6112f0565b5b604051908082528060200260200182016040528015610e195781602001602082028036833780820191505090505b5060039080519060200190610e2f92919061112d565b50600060038281548110610e4657610e456119f7565b5b9060005260206000200160009054906101000a900473ffffffffffffffffffffffffffffffffffffffff1673ffffffffffffffffffffffffffffffffffffffff1647604051610e9490611ab7565b60006040518083038185875af1925050503d8060008114610ed1576040519150601f19603f3d011682016040523d82523d6000602084013e610ed6565b606091505b5050905080610f11576040517f3b07623d00000000000000000000000000000000000000000000000000000000815260040160405180910390fd5b7f794919b0f484b8e90b1b817ac7f880f846fbd8a9813dee2a378e820db094e3d1600560009054906101000a900473ffffffffffffffffffffffffffffffffffffffff16604051610f629190611578565b60405180910390a15050505050565b60008054906101000a900473ffffffffffffffffffffffffffffffffffffffff1673ffffffffffffffffffffffffffffffffffffffff163373ffffffffffffffffffffffffffffffffffffffff1614610fff576040517f08c379a0000000000000000000000000000000000000000000000000000000008152600401610ff690611b18565b60405180910390fd5b565b3373ffffffffffffffffffffffffffffffffffffffff168173ffffffffffffffffffffffffffffffffffffffff160361106f576040517f08c379a000000000000000000000000000000000000000000000000000000000815260040161106690611b84565b60405180910390fd5b80600160006101000a81548173ffffffffffffffffffffffffffffffffffffffff021916908373ffffffffffffffffffffffffffffffffffffffff1602179055508073ffffffffffffffffffffffffffffffffffffffff1660008054906101000a900473ffffffffffffffffffffffffffffffffffffffff1673ffffffffffffffffffffffffffffffffffffffff167fed8889f560326eb138920d842192f0eb3dd22b4f139c87a2c57538e05bae127860405160405180910390a350565b8280548282559060005260206000209081019282156111a6579160200282015b828111156111a55782518260006101000a81548173ffffffffffffffffffffffffffffffffffffffff021916908373ffffffffffffffffffffffffffffffffffffffff1602179055509160200191906001019061114d565b5b5090506111b391906111b7565b5090565b5b808211156111d05760008160009055506001016111b8565b5090565b6000819050919050565b6111e7816111d4565b82525050565b600060208201905061120260008301846111de565b92915050565b7f4e487b7100000000000000000000000000000000000000000000000000000000600052602160045260246000fd5b6002811061124857611247611208565b5b50565b600081905061125982611237565b919050565b60006112698261124b565b9050919050565b6112798161125e565b82525050565b60006020820190506112946000830184611270565b92915050565b6000604051905090565b600080fd5b600080fd5b6112b7816111d4565b81146112c257600080fd5b50565b6000813590506112d4816112ae565b92915050565b600080fd5b6000601f19601f8301169050919050565b7f4e487b7100000000000000000000000000000000000000000000000000000000600052604160045260246000fd5b611328826112df565b810181811067ffffffffffffffff82111715611347576113466112f0565b5b80604052505050565b600061135a61129a565b9050611366828261131f565b919050565b600067ffffffffffffffff821115611386576113856112f0565b5b602082029050602081019050919050565b600080fd5b60006113af6113aa8461136b565b611350565b905080838252602082019050602084028301858111156113d2576113d1611397565b5b835b818110156113fb57806113e788826112c5565b8452602084019350506020810190506113d4565b5050509392505050565b600082601f83011261141a576114196112da565b5b813561142a84826020860161139c565b91505092915050565b6000806040838503121561144a576114496112a4565b5b6000611458858286016112c5565b925050602083013567ffffffffffffffff811115611479576114786112a9565b5b61148585828601611405565b9150509250929050565b600080fd5b60008083601f8401126114aa576114a96112da565b5b8235905067ffffffffffffffff8111156114c7576114c661148f565b5b6020830191508360018202830111156114e3576114e2611397565b5b9250929050565b60008060208385031215611501576115006112a4565b5b600083013567ffffffffffffffff81111561151f5761151e6112a9565b5b61152b85828601611494565b92509250509250929050565b600073ffffffffffffffffffffffffffffffffffffffff82169050919050565b600061156282611537565b9050919050565b61157281611557565b82525050565b600060208201905061158d6000830184611569565b92915050565b600080fd5b600067ffffffffffffffff8211156115b3576115b26112f0565b5b6115bc826112df565b9050602081019050919050565b82818337600083830152505050565b60006115eb6115e684611598565b611350565b90508281526020810184848401111561160757611606611593565b5b6116128482856115c9565b509392505050565b600082601f83011261162f5761162e6112da565b5b813561163f8482602086016115d8565b91505092915050565b60006020828403121561165e5761165d6112a4565b5b600082013567ffffffffffffffff81111561167c5761167b6112a9565b5b6116888482850161161a565b91505092915050565b60008115159050919050565b6116a681611691565b82525050565b600081519050919050565b600082825260208201905092915050565b60005b838110156116e65780820151818401526020810190506116cb565b60008484015250505050565b60006116fd826116ac565b61170781856116b7565b93506117178185602086016116c8565b611720816112df565b840191505092915050565b6000604082019050611740600083018561169d565b818103602083015261175281846116f2565b90509392505050565b600060208284031215611771576117706112a4565b5b600061177f848285016112c5565b91505092915050565b61179181611557565b811461179c57600080fd5b50565b6000813590506117ae81611788565b92915050565b6000602082840312156117ca576117c96112a4565b5b60006117d88482850161179f565b91505092915050565b60006040820190506117f66000830185611569565b6118036020830184611569565b9392505050565b7f4e487b7100000000000000000000000000000000000000000000000000000000600052601160045260246000fd5b6000611844826111d4565b915061184f836111d4565b92508282019050808211156118675761186661180a565b5b92915050565b6000819050919050565b6118808161186d565b82525050565b600067ffffffffffffffff82169050919050565b6118a381611886565b82525050565b600061ffff82169050919050565b6118c0816118a9565b82525050565b600063ffffffff82169050919050565b6118df816118c6565b82525050565b600060a0820190506118fa6000830188611877565b611907602083018761189a565b61191460408301866118b7565b61192160608301856118d6565b61192e60808301846118d6565b9695505050505050565b600081519050611947816112ae565b92915050565b600060208284031215611963576119626112a4565b5b600061197184828501611938565b91505092915050565b600082825260208201905092915050565b7f4d7573742062652070726f706f736564206f776e657200000000000000000000600082015250565b60006119c160168361197a565b91506119cc8261198b565b602082019050919050565b600060208201905081810360008301526119f0816119b4565b9050919050565b7f4e487b7100000000000000000000000000000000000000000000000000000000600052603260045260246000fd5b7f4e487b7100000000000000000000000000000000000000000000000000000000600052601260045260246000fd5b6000611a60826111d4565b9150611a6b836111d4565b925082611a7b57611a7a611a26565b5b828206905092915050565b600081905092915050565b50565b6000611aa1600083611a86565b9150611aac82611a91565b600082019050919050565b6000611ac282611a94565b9150819050919050565b7f4f6e6c792063616c6c61626c65206279206f776e657200000000000000000000600082015250565b6000611b0260168361197a565b9150611b0d82611acc565b602082019050919050565b60006020820190508181036000830152611b3181611af5565b9050919050565b7f43616e6e6f74207472616e7366657220746f2073656c66000000000000000000600082015250565b6000611b6e60178361197a565b9150611b7982611b38565b602082019050919050565b60006020820190508181036000830152611b9d81611b61565b905091905056fea26469706673582212206f857873b9f001a3d01895a80810d6c942db1bc307f65981d392abad40b2ba7464736f6c63430008130033",
  "devdoc": {
    "author": "Ogar Segun",
    "details": "This implements ChaninlinkVRF and Chainlink automation",
    "kind": "dev",
    "methods": {},
    "title": "A simple lottery project",
    "version": 1
  },
  "userdoc": {
    "kind": "user",
    "methods": {
      "acceptOwnership()": {
        "notice": "Allows an ownership transfer to be completed by the recipient."
      },
      "owner()": {
        "notice": "Get the current owner"
      },
      "transferOwnership(address)": {
        "notice": "Allows an owner to begin transferring ownership to a new address, pending."
      }
    },
    "version": 1
  },
  "storageLayout": {
    "storage": [
      {
        "astId": 66,
        "contract": "contracts/Lottery.sol:Lottery",
        "label": "s_owner",
        "offset": 0,
        "slot": "0",
        "type": "t_address"
      },
      {
        "astId": 68,
        "contract": "contracts/Lottery.sol:Lottery",
        "label": "s_pendingOwner",
        "offset": 0,
        "slot": "1",
        "type": "t_address"
      },
      {
        "astId": 426,
        "contract": "contracts/Lottery.sol:Lottery",
        "label": "COORDINATOR",
        "offset": 0,
        "slot": "2",
        "type": "t_contract(VRFCoordinatorV2Interface)409"
      },
      {
        "astId": 442,
        "contract": "contracts/Lottery.sol:Lottery",
        "label": "s_participantArray",
        "offset": 0,
        "slot": "3",
        "type": "t_array(t_address_payable)dyn_storage"
      },
      {
        "astId": 448,
        "contract": "contracts/Lottery.sol:Lottery",
        "label": "s_mappingParticipant",
        "offset": 0,
        "slot": "4",
        "type": "t_mapping(t_address,t_uint256)"
      },
      {
        "astId": 450,
        "contract": "contracts/Lottery.sol:Lottery",
        "label": "s_recentWinner",
        "offset": 0,
        "slot": "5",
        "type": "t_address"
      },
      {
        "astId": 452,
        "contract": "contracts/Lottery.sol:Lottery",
        "label": "s_subscriptionId",
        "offset": 20,
        "slot": "5",
        "type": "t_uint64"
      },
      {
        "astId": 454,
        "contract": "contracts/Lottery.sol:Lottery",
        "label": "keyHash",
        "offset": 0,
        "slot": "6",
        "type": "t_bytes32"
      },
      {
        "astId": 456,
        "contract": "contracts/Lottery.sol:Lottery",
        "label": "callbackGasLimit",
        "offset": 0,
        "slot": "7",
        "type": "t_uint32"
      },
      {
        "astId": 458,
        "contract": "contracts/Lottery.sol:Lottery",
        "label": "requestConfirmations",
        "offset": 4,
        "slot": "7",
        "type": "t_uint16"
      },
      {
        "astId": 460,
        "contract": "contracts/Lottery.sol:Lottery",
        "label": "numWords",
        "offset": 6,
        "slot": "7",
        "type": "t_uint32"
      },
      {
        "astId": 462,
        "contract": "contracts/Lottery.sol:Lottery",
        "label": "lastTimestamp",
        "offset": 0,
        "slot": "8",
        "type": "t_uint256"
      },
      {
        "astId": 464,
        "contract": "contracts/Lottery.sol:Lottery",
        "label": "s_owner",
        "offset": 0,
        "slot": "9",
        "type": "t_address"
      },
      {
        "astId": 467,
        "contract": "contracts/Lottery.sol:Lottery",
        "label": "status",
        "offset": 20,
        "slot": "9",
        "type": "t_enum(Status)437"
      }
    ],
    "types": {
      "t_address": {
        "encoding": "inplace",
        "label": "address",
        "numberOfBytes": "20"
      },
      "t_address_payable": {
        "encoding": "inplace",
        "label": "address payable",
        "numberOfBytes": "20"
      },
      "t_array(t_address_payable)dyn_storage": {
        "base": "t_address_payable",
        "encoding": "dynamic_array",
        "label": "address payable[]",
        "numberOfBytes": "32"
      },
      "t_bytes32": {
        "encoding": "inplace",
        "label": "bytes32",
        "numberOfBytes": "32"
      },
      "t_contract(VRFCoordinatorV2Interface)409": {
        "encoding": "inplace",
        "label": "contract VRFCoordinatorV2Interface",
        "numberOfBytes": "20"
      },
      "t_enum(Status)437": {
        "encoding": "inplace",
        "label": "enum Lottery.Status",
        "numberOfBytes": "1"
      },
      "t_mapping(t_address,t_uint256)": {
        "encoding": "mapping",
        "key": "t_address",
        "label": "mapping(address => uint256)",
        "numberOfBytes": "32",
        "value": "t_uint256"
      },
      "t_uint16": {
        "encoding": "inplace",
        "label": "uint16",
        "numberOfBytes": "2"
      },
      "t_uint256": {
        "encoding": "inplace",
        "label": "uint256",
        "numberOfBytes": "32"
      },
      "t_uint32": {
        "encoding": "inplace",
        "label": "uint32",
        "numberOfBytes": "4"
      },
      "t_uint64": {
        "encoding": "inplace",
        "label": "uint64",
        "numberOfBytes": "8"
      }
    }
  }
}