{
  "address": "0xACd6fCbC645e3DF8546E68cFF8f4b11096091C9B",
  "abi": [
    {
      "inputs": [
        {
          "internalType": "uint256",
          "name": "_minimumFee",
          "type": "uint256"
        }
      ],
      "stateMutability": "nonpayable",
      "type": "constructor"
    },
    {
      "inputs": [],
      "name": "Lottery_ethNotEnough",
      "type": "error"
    },
    {
      "inputs": [],
      "name": "enterLottery",
      "outputs": [],
      "stateMutability": "payable",
      "type": "function"
    },
    {
      "inputs": [],
      "name": "selectAndPayWinner",
      "outputs": [],
      "stateMutability": "nonpayable",
      "type": "function"
    }
  ],
  "transactionHash": "0xc276ebee197ed68b80cdf17a7317ada4197df681cee5394e93a2549d2e8983b0",
  "args": [
    "2000000000000000000"
  ],
  "numDeployments": 1,
  "solcInputHash": "60e48be53a916758fb28da0ef9e41618",
  "bytecode": "0x60a060405234801561001057600080fd5b5060405161035c38038061035c8339818101604052810190610032919061007b565b8060808181525050506100a8565b600080fd5b6000819050919050565b61005881610045565b811461006357600080fd5b50565b6000815190506100758161004f565b92915050565b60006020828403121561009157610090610040565b5b600061009f84828501610066565b91505092915050565b60805161029a6100c260003960006051015261029a6000f3fe6080604052600436106100295760003560e01c8063c1af57851461002e578063cc2e69ee14610038575b600080fd5b61003661004f565b005b34801561004457600080fd5b5061004d6101f5565b005b7f00000000000000000000000000000000000000000000000000000000000000003410156100a9576040517ff4cd4c1500000000000000000000000000000000000000000000000000000000815260040160405180910390fd5b6000600160003373ffffffffffffffffffffffffffffffffffffffff1673ffffffffffffffffffffffffffffffffffffffff168152602001908152602001600020541461014b5734600160003373ffffffffffffffffffffffffffffffffffffffff1673ffffffffffffffffffffffffffffffffffffffff168152602001908152602001600020600082825461013f9190610230565b925050819055506101f3565b34600160003373ffffffffffffffffffffffffffffffffffffffff1673ffffffffffffffffffffffffffffffffffffffff168152602001908152602001600020819055506000339080600181540180825580915050600190039060005260206000200160009091909190916101000a81548173ffffffffffffffffffffffffffffffffffffffff021916908373ffffffffffffffffffffffffffffffffffffffff1602179055505b565b565b6000819050919050565b7f4e487b7100000000000000000000000000000000000000000000000000000000600052601160045260246000fd5b600061023b826101f7565b9150610246836101f7565b925082820190508082111561025e5761025d610201565b5b9291505056fea2646970667358221220fc44856d4fe0dc62e794935fd4890059a83dec16e3574ac11ac4d6990bdbf82364736f6c63430008130033",
  "devdoc": {
    "kind": "dev",
    "methods": {},
    "version": 1
  },
  "userdoc": {
    "kind": "user",
    "methods": {},
    "notice": "we want users to enter the lottery game, a winner will be selected by the contract after an event has been triggered (maybe certain time-interval) based on verifiable random mechanism provided by chainlink.",
    "version": 1
  },
  "storageLayout": {
    "storage": [
      {
        "astId": 8,
        "contract": "contracts/Lottery.sol:Lottery",
        "label": "participantArray",
        "offset": 0,
        "slot": "0",
        "type": "t_array(t_address_payable)dyn_storage"
      },
      {
        "astId": 12,
        "contract": "contracts/Lottery.sol:Lottery",
        "label": "mappingParticipant",
        "offset": 0,
        "slot": "1",
        "type": "t_mapping(t_address,t_uint256)"
      }
    ],
    "types": {
      "t_address": {
        "encoding": "inplace",
        "label": "address",
        "numberOfBytes": "20"
      },
      "t_address_payable": {
        "encoding": "inplace",
        "label": "address payable",
        "numberOfBytes": "20"
      },
      "t_array(t_address_payable)dyn_storage": {
        "base": "t_address_payable",
        "encoding": "dynamic_array",
        "label": "address payable[]",
        "numberOfBytes": "32"
      },
      "t_mapping(t_address,t_uint256)": {
        "encoding": "mapping",
        "key": "t_address",
        "label": "mapping(address => uint256)",
        "numberOfBytes": "32",
        "value": "t_uint256"
      },
      "t_uint256": {
        "encoding": "inplace",
        "label": "uint256",
        "numberOfBytes": "32"
      }
    }
  }
}